{
  "_format": "hh-sol-artifact-1",
  "contractName": "LandRegistry",
  "sourceName": "contracts/LandRegistry.sol",
  "abi": [
    {
      "inputs": [
        {
          "internalType": "address",
          "name": "_governmentAuthority",
          "type": "address"
        },
        {
          "internalType": "address",
          "name": "_inspector",
          "type": "address"
        }
      ],
      "stateMutability": "nonpayable",
      "type": "constructor"
    },
    {
      "inputs": [],
      "name": "AccessControlBadConfirmation",
      "type": "error"
    },
    {
      "inputs": [
        {
          "internalType": "address",
          "name": "account",
          "type": "address"
        },
        {
          "internalType": "bytes32",
          "name": "neededRole",
          "type": "bytes32"
        }
      ],
      "name": "AccessControlUnauthorizedAccount",
      "type": "error"
    },
    {
      "anonymous": false,
      "inputs": [
        {
          "indexed": false,
          "internalType": "uint256",
          "name": "offerId",
          "type": "uint256"
        },
        {
          "indexed": true,
          "internalType": "address",
          "name": "buyer",
          "type": "address"
        },
        {
          "indexed": false,
          "internalType": "uint256",
          "name": "amount",
          "type": "uint256"
        },
        {
          "indexed": false,
          "internalType": "uint256",
          "name": "timestamp",
          "type": "uint256"
        }
      ],
      "name": "EscrowFunded",
      "type": "event"
    },
    {
      "anonymous": false,
      "inputs": [
        {
          "indexed": false,
          "internalType": "uint256",
          "name": "offerId",
          "type": "uint256"
        },
        {
          "indexed": true,
          "internalType": "address",
          "name": "recipient",
          "type": "address"
        },
        {
          "indexed": false,
          "internalType": "uint256",
          "name": "amount",
          "type": "uint256"
        },
        {
          "indexed": false,
          "internalType": "uint256",
          "name": "timestamp",
          "type": "uint256"
        }
      ],
      "name": "FundsRefunded",
      "type": "event"
    },
    {
      "anonymous": false,
      "inputs": [
        {
          "indexed": false,
          "internalType": "uint256",
          "name": "offerId",
          "type": "uint256"
        },
        {
          "indexed": true,
          "internalType": "address",
          "name": "recipient",
          "type": "address"
        },
        {
          "indexed": false,
          "internalType": "uint256",
          "name": "amount",
          "type": "uint256"
        },
        {
          "indexed": false,
          "internalType": "uint256",
          "name": "timestamp",
          "type": "uint256"
        }
      ],
      "name": "FundsTransferred",
      "type": "event"
    },
    {
      "anonymous": false,
      "inputs": [
        {
          "indexed": false,
          "internalType": "uint256",
          "name": "offerId",
          "type": "uint256"
        },
        {
          "indexed": false,
          "internalType": "uint256",
          "name": "timestamp",
          "type": "uint256"
        }
      ],
      "name": "GovtApprovedOffer",
      "type": "event"
    },
    {
      "anonymous": false,
      "inputs": [
        {
          "indexed": false,
          "internalType": "uint256",
          "name": "offerId",
          "type": "uint256"
        },
        {
          "indexed": false,
          "internalType": "uint256",
          "name": "timestamp",
          "type": "uint256"
        }
      ],
      "name": "GovtRejectedOffer",
      "type": "event"
    },
    {
      "anonymous": false,
      "inputs": [
        {
          "indexed": false,
          "internalType": "uint256",
          "name": "offerId",
          "type": "uint256"
        },
        {
          "indexed": false,
          "internalType": "uint256",
          "name": "timestamp",
          "type": "uint256"
        }
      ],
      "name": "InspectorApprovedOffer",
      "type": "event"
    },
    {
      "anonymous": false,
      "inputs": [
        {
          "indexed": false,
          "internalType": "uint256",
          "name": "offerId",
          "type": "uint256"
        },
        {
          "indexed": true,
          "internalType": "address",
          "name": "buyer",
          "type": "address"
        },
        {
          "indexed": false,
          "internalType": "uint256",
          "name": "timestamp",
          "type": "uint256"
        }
      ],
      "name": "OfferCancelled",
      "type": "event"
    },
    {
      "anonymous": false,
      "inputs": [
        {
          "indexed": false,
          "internalType": "uint256",
          "name": "offerId",
          "type": "uint256"
        },
        {
          "indexed": false,
          "internalType": "uint256",
          "name": "propertyId",
          "type": "uint256"
        },
        {
          "indexed": true,
          "internalType": "address",
          "name": "buyer",
          "type": "address"
        },
        {
          "indexed": false,
          "internalType": "uint256",
          "name": "offerPrice",
          "type": "uint256"
        },
        {
          "indexed": false,
          "internalType": "uint256",
          "name": "timestamp",
          "type": "uint256"
        }
      ],
      "name": "OfferSubmitted",
      "type": "event"
    },
    {
      "anonymous": false,
      "inputs": [
        {
          "indexed": false,
          "internalType": "uint256",
          "name": "propertyId",
          "type": "uint256"
        },
        {
          "indexed": true,
          "internalType": "address",
          "name": "seller",
          "type": "address"
        },
        {
          "indexed": false,
          "internalType": "uint256",
          "name": "timestamp",
          "type": "uint256"
        }
      ],
      "name": "PropertyCancelled",
      "type": "event"
    },
    {
      "anonymous": false,
      "inputs": [
        {
          "indexed": false,
          "internalType": "uint256",
          "name": "propertyId",
          "type": "uint256"
        },
        {
          "indexed": true,
          "internalType": "address",
          "name": "seller",
          "type": "address"
        },
        {
          "indexed": false,
          "internalType": "uint256",
          "name": "timestamp",
          "type": "uint256"
        }
      ],
      "name": "PropertyListed",
      "type": "event"
    },
    {
      "anonymous": false,
      "inputs": [
        {
          "indexed": false,
          "internalType": "uint256",
          "name": "propertyId",
          "type": "uint256"
        },
        {
          "indexed": true,
          "internalType": "address",
          "name": "seller",
          "type": "address"
        },
        {
          "indexed": false,
          "internalType": "uint256",
          "name": "timestamp",
          "type": "uint256"
        }
      ],
      "name": "PropertyUpdated",
      "type": "event"
    },
    {
      "anonymous": false,
      "inputs": [
        {
          "indexed": true,
          "internalType": "bytes32",
          "name": "role",
          "type": "bytes32"
        },
        {
          "indexed": true,
          "internalType": "bytes32",
          "name": "previousAdminRole",
          "type": "bytes32"
        },
        {
          "indexed": true,
          "internalType": "bytes32",
          "name": "newAdminRole",
          "type": "bytes32"
        }
      ],
      "name": "RoleAdminChanged",
      "type": "event"
    },
    {
      "anonymous": false,
      "inputs": [
        {
          "indexed": true,
          "internalType": "bytes32",
          "name": "role",
          "type": "bytes32"
        },
        {
          "indexed": true,
          "internalType": "address",
          "name": "account",
          "type": "address"
        },
        {
          "indexed": true,
          "internalType": "address",
          "name": "sender",
          "type": "address"
        }
      ],
      "name": "RoleGranted",
      "type": "event"
    },
    {
      "anonymous": false,
      "inputs": [
        {
          "indexed": true,
          "internalType": "bytes32",
          "name": "role",
          "type": "bytes32"
        },
        {
          "indexed": true,
          "internalType": "address",
          "name": "account",
          "type": "address"
        },
        {
          "indexed": true,
          "internalType": "address",
          "name": "sender",
          "type": "address"
        }
      ],
      "name": "RoleRevoked",
      "type": "event"
    },
    {
      "anonymous": false,
      "inputs": [
        {
          "indexed": false,
          "internalType": "uint256",
          "name": "offerId",
          "type": "uint256"
        },
        {
          "indexed": false,
          "internalType": "uint256",
          "name": "timestamp",
          "type": "uint256"
        }
      ],
      "name": "SellerAcceptedOffer",
      "type": "event"
    },
    {
      "anonymous": false,
      "inputs": [
        {
          "indexed": false,
          "internalType": "uint256",
          "name": "offerId",
          "type": "uint256"
        },
        {
          "indexed": false,
          "internalType": "uint256",
          "name": "timestamp",
          "type": "uint256"
        }
      ],
      "name": "SellerRejectedOffer",
      "type": "event"
    },
    {
      "inputs": [],
      "name": "DEFAULT_ADMIN_ROLE",
      "outputs": [
        {
          "internalType": "bytes32",
          "name": "",
          "type": "bytes32"
        }
      ],
      "stateMutability": "view",
      "type": "function"
    },
    {
      "inputs": [],
      "name": "GOVERNMENT_ROLE",
      "outputs": [
        {
          "internalType": "bytes32",
          "name": "",
          "type": "bytes32"
        }
      ],
      "stateMutability": "view",
      "type": "function"
    },
    {
      "inputs": [],
      "name": "INSPECTOR_ROLE",
      "outputs": [
        {
          "internalType": "bytes32",
          "name": "",
          "type": "bytes32"
        }
      ],
      "stateMutability": "view",
      "type": "function"
    },
    {
      "inputs": [
        {
          "internalType": "uint256",
          "name": "",
          "type": "uint256"
        }
      ],
      "name": "activeProperties",
      "outputs": [
        {
          "internalType": "uint256",
          "name": "",
          "type": "uint256"
        }
      ],
      "stateMutability": "view",
      "type": "function"
    },
    {
      "inputs": [
        {
          "internalType": "uint256",
          "name": "_offerId",
          "type": "uint256"
        }
      ],
      "name": "cancelOffer",
      "outputs": [],
      "stateMutability": "nonpayable",
      "type": "function"
    },
    {
      "inputs": [
        {
          "internalType": "uint256",
          "name": "_propertyId",
          "type": "uint256"
        }
      ],
      "name": "cancelPropertyListing",
      "outputs": [],
      "stateMutability": "nonpayable",
      "type": "function"
    },
    {
      "inputs": [
        {
          "internalType": "uint256",
          "name": "_offerId",
          "type": "uint256"
        }
      ],
      "name": "depositEscrowFunds",
      "outputs": [],
      "stateMutability": "payable",
      "type": "function"
    },
    {
      "inputs": [],
      "name": "getActiveProperties",
      "outputs": [
        {
          "internalType": "uint256[]",
          "name": "",
          "type": "uint256[]"
        }
      ],
      "stateMutability": "view",
      "type": "function"
    },
    {
      "inputs": [
        {
          "internalType": "uint256",
          "name": "_propertyId",
          "type": "uint256"
        }
      ],
      "name": "getBestOffer",
      "outputs": [
        {
          "internalType": "uint256",
          "name": "bestOfferId",
          "type": "uint256"
        }
      ],
      "stateMutability": "view",
      "type": "function"
    },
    {
      "inputs": [
        {
          "internalType": "uint256",
          "name": "_propertyId",
          "type": "uint256"
        }
      ],
      "name": "getOffersForProperty",
      "outputs": [
        {
          "internalType": "uint256[]",
          "name": "",
          "type": "uint256[]"
        }
      ],
      "stateMutability": "view",
      "type": "function"
    },
    {
      "inputs": [
        {
          "internalType": "uint256",
          "name": "_propertyId",
          "type": "uint256"
        }
      ],
      "name": "getProperty",
      "outputs": [
        {
          "components": [
            {
              "internalType": "uint256",
              "name": "id",
              "type": "uint256"
            },
            {
              "internalType": "address",
              "name": "seller",
              "type": "address"
            },
            {
              "internalType": "address",
              "name": "owner",
              "type": "address"
            },
            {
              "internalType": "bool",
              "name": "isListed",
              "type": "bool"
            },
            {
              "internalType": "uint256",
              "name": "area",
              "type": "uint256"
            },
            {
              "internalType": "uint256",
              "name": "askingPrice",
              "type": "uint256"
            },
            {
              "internalType": "string",
              "name": "location",
              "type": "string"
            },
            {
              "internalType": "string",
              "name": "documentHash",
              "type": "string"
            }
          ],
          "internalType": "struct LandRegistry.Property",
          "name": "",
          "type": "tuple"
        }
      ],
      "stateMutability": "view",
      "type": "function"
    },
    {
      "inputs": [
        {
          "internalType": "bytes32",
          "name": "role",
          "type": "bytes32"
        }
      ],
      "name": "getRoleAdmin",
      "outputs": [
        {
          "internalType": "bytes32",
          "name": "",
          "type": "bytes32"
        }
      ],
      "stateMutability": "view",
      "type": "function"
    },
    {
      "inputs": [
        {
          "internalType": "address",
          "name": "_user",
          "type": "address"
        }
      ],
      "name": "getUserTransactions",
      "outputs": [
        {
          "internalType": "uint256[]",
          "name": "",
          "type": "uint256[]"
        }
      ],
      "stateMutability": "view",
      "type": "function"
    },
    {
      "inputs": [
        {
          "internalType": "address",
          "name": "_user",
          "type": "address"
        },
        {
          "internalType": "uint256",
          "name": "start",
          "type": "uint256"
        },
        {
          "internalType": "uint256",
          "name": "count",
          "type": "uint256"
        }
      ],
      "name": "getUserTransactionsPaginated",
      "outputs": [
        {
          "internalType": "uint256[]",
          "name": "",
          "type": "uint256[]"
        }
      ],
      "stateMutability": "view",
      "type": "function"
    },
    {
      "inputs": [
        {
          "internalType": "uint256",
          "name": "_offerId",
          "type": "uint256"
        }
      ],
      "name": "govtApproveOffer",
      "outputs": [],
      "stateMutability": "nonpayable",
      "type": "function"
    },
    {
      "inputs": [
        {
          "internalType": "uint256",
          "name": "_offerId",
          "type": "uint256"
        }
      ],
      "name": "govtRejectOffer",
      "outputs": [],
      "stateMutability": "nonpayable",
      "type": "function"
    },
    {
      "inputs": [
        {
          "internalType": "bytes32",
          "name": "role",
          "type": "bytes32"
        },
        {
          "internalType": "address",
          "name": "account",
          "type": "address"
        }
      ],
      "name": "grantRole",
      "outputs": [],
      "stateMutability": "nonpayable",
      "type": "function"
    },
    {
      "inputs": [
        {
          "internalType": "bytes32",
          "name": "role",
          "type": "bytes32"
        },
        {
          "internalType": "address",
          "name": "account",
          "type": "address"
        }
      ],
      "name": "hasRole",
      "outputs": [
        {
          "internalType": "bool",
          "name": "",
          "type": "bool"
        }
      ],
      "stateMutability": "view",
      "type": "function"
    },
    {
      "inputs": [
        {
          "internalType": "uint256",
          "name": "_offerId",
          "type": "uint256"
        }
      ],
      "name": "inspectorApproveOffer",
      "outputs": [],
      "stateMutability": "nonpayable",
      "type": "function"
    },
    {
      "inputs": [
        {
          "internalType": "string",
          "name": "_location",
          "type": "string"
        },
        {
          "internalType": "uint256",
          "name": "_area",
          "type": "uint256"
        },
        {
          "internalType": "uint256",
          "name": "_askingPrice",
          "type": "uint256"
        },
        {
          "internalType": "string",
          "name": "_documentHash",
          "type": "string"
        }
      ],
      "name": "listProperty",
      "outputs": [],
      "stateMutability": "nonpayable",
      "type": "function"
    },
    {
      "inputs": [],
      "name": "offerCount",
      "outputs": [
        {
          "internalType": "uint256",
          "name": "",
          "type": "uint256"
        }
      ],
      "stateMutability": "view",
      "type": "function"
    },
    {
      "inputs": [
        {
          "internalType": "uint256",
          "name": "",
          "type": "uint256"
        }
      ],
      "name": "offers",
      "outputs": [
        {
          "internalType": "uint256",
          "name": "id",
          "type": "uint256"
        },
        {
          "internalType": "uint256",
          "name": "propertyId",
          "type": "uint256"
        },
        {
          "internalType": "uint256",
          "name": "offerPrice",
          "type": "uint256"
        },
        {
          "internalType": "uint256",
          "name": "escrowAmount",
          "type": "uint256"
        },
        {
          "internalType": "address",
          "name": "buyer",
          "type": "address"
        },
        {
          "internalType": "enum LandRegistry.OfferStatus",
          "name": "status",
          "type": "uint8"
        }
      ],
      "stateMutability": "view",
      "type": "function"
    },
    {
      "inputs": [
        {
          "internalType": "uint256",
          "name": "",
          "type": "uint256"
        }
      ],
      "name": "properties",
      "outputs": [
        {
          "internalType": "uint256",
          "name": "id",
          "type": "uint256"
        },
        {
          "internalType": "address",
          "name": "seller",
          "type": "address"
        },
        {
          "internalType": "address",
          "name": "owner",
          "type": "address"
        },
        {
          "internalType": "bool",
          "name": "isListed",
          "type": "bool"
        },
        {
          "internalType": "uint256",
          "name": "area",
          "type": "uint256"
        },
        {
          "internalType": "uint256",
          "name": "askingPrice",
          "type": "uint256"
        },
        {
          "internalType": "string",
          "name": "location",
          "type": "string"
        },
        {
          "internalType": "string",
          "name": "documentHash",
          "type": "string"
        }
      ],
      "stateMutability": "view",
      "type": "function"
    },
    {
      "inputs": [],
      "name": "propertyCount",
      "outputs": [
        {
          "internalType": "uint256",
          "name": "",
          "type": "uint256"
        }
      ],
      "stateMutability": "view",
      "type": "function"
    },
    {
      "inputs": [
        {
          "internalType": "uint256",
          "name": "",
          "type": "uint256"
        },
        {
          "internalType": "uint256",
          "name": "",
          "type": "uint256"
        }
      ],
      "name": "propertyOffers",
      "outputs": [
        {
          "internalType": "uint256",
          "name": "",
          "type": "uint256"
        }
      ],
      "stateMutability": "view",
      "type": "function"
    },
    {
      "inputs": [
        {
          "internalType": "bytes32",
          "name": "role",
          "type": "bytes32"
        },
        {
          "internalType": "address",
          "name": "callerConfirmation",
          "type": "address"
        }
      ],
      "name": "renounceRole",
      "outputs": [],
      "stateMutability": "nonpayable",
      "type": "function"
    },
    {
      "inputs": [
        {
          "internalType": "bytes32",
          "name": "role",
          "type": "bytes32"
        },
        {
          "internalType": "address",
          "name": "account",
          "type": "address"
        }
      ],
      "name": "revokeRole",
      "outputs": [],
      "stateMutability": "nonpayable",
      "type": "function"
    },
    {
      "inputs": [
        {
          "internalType": "uint256",
          "name": "_offerId",
          "type": "uint256"
        }
      ],
      "name": "sellerAcceptOffer",
      "outputs": [],
      "stateMutability": "nonpayable",
      "type": "function"
    },
    {
      "inputs": [
        {
          "internalType": "uint256",
          "name": "_offerId",
          "type": "uint256"
        }
      ],
      "name": "sellerRejectOffer",
      "outputs": [],
      "stateMutability": "nonpayable",
      "type": "function"
    },
    {
      "inputs": [
        {
          "internalType": "uint256",
          "name": "_propertyId",
          "type": "uint256"
        },
        {
          "internalType": "uint256",
          "name": "_offerPrice",
          "type": "uint256"
        }
      ],
      "name": "submitOffer",
      "outputs": [],
      "stateMutability": "nonpayable",
      "type": "function"
    },
    {
      "inputs": [
        {
          "internalType": "bytes4",
          "name": "interfaceId",
          "type": "bytes4"
        }
      ],
      "name": "supportsInterface",
      "outputs": [
        {
          "internalType": "bool",
          "name": "",
          "type": "bool"
        }
      ],
      "stateMutability": "view",
      "type": "function"
    },
    {
      "inputs": [
        {
          "internalType": "uint256",
          "name": "_propertyId",
          "type": "uint256"
        },
        {
          "internalType": "string",
          "name": "_location",
          "type": "string"
        },
        {
          "internalType": "uint256",
          "name": "_area",
          "type": "uint256"
        },
        {
          "internalType": "uint256",
          "name": "_askingPrice",
          "type": "uint256"
        },
        {
          "internalType": "string",
          "name": "_documentHash",
          "type": "string"
        }
      ],
      "name": "updateProperty",
      "outputs": [],
      "stateMutability": "nonpayable",
      "type": "function"
    },
    {
      "inputs": [
        {
          "internalType": "address",
          "name": "",
          "type": "address"
        },
        {
          "internalType": "uint256",
          "name": "",
          "type": "uint256"
        }
      ],
      "name": "userTransactions",
      "outputs": [
        {
          "internalType": "uint256",
          "name": "",
          "type": "uint256"
        }
      ],
      "stateMutability": "view",
      "type": "function"
    }
  ],
  "bytecode": "0x6080604052600180553480156200001557600080fd5b5060405162004f8c38038062004f8c83398181016040528101906200003b91906200029e565b620000506000801b33620000bf60201b60201c565b50620000837fd9d062b29c8756d894f301c5167d214c34d627724cd7fc859ab9329c9330cf5183620000bf60201b60201c565b50620000b67f273dcf2136c7d8ef632bb8ef13dbca69a8f36fa620c7468671b3153d46a211c082620000bf60201b60201c565b505050620002e5565b6000620000d38383620001c260201b60201c565b620001b757600160008085815260200190815260200160002060000160008473ffffffffffffffffffffffffffffffffffffffff1673ffffffffffffffffffffffffffffffffffffffff16815260200190815260200160002060006101000a81548160ff021916908315150217905550620001536200022c60201b60201c565b73ffffffffffffffffffffffffffffffffffffffff168273ffffffffffffffffffffffffffffffffffffffff16847f2f8788117e7eff1d82e926ec794901d17c78024a50270940304540a733656f0d60405160405180910390a460019050620001bc565b600090505b92915050565b600080600084815260200190815260200160002060000160008373ffffffffffffffffffffffffffffffffffffffff1673ffffffffffffffffffffffffffffffffffffffff16815260200190815260200160002060009054906101000a900460ff16905092915050565b600033905090565b600080fd5b600073ffffffffffffffffffffffffffffffffffffffff82169050919050565b6000620002668262000239565b9050919050565b620002788162000259565b81146200028457600080fd5b50565b60008151905062000298816200026d565b92915050565b60008060408385031215620002b857620002b762000234565b5b6000620002c88582860162000287565b9250506020620002db8582860162000287565b9150509250929050565b614c9780620002f56000396000f3fe6080604052600436106101ee5760003560e01c80638a72ea6a1161010d578063c5509315116100a0578063eb81e0981161006f578063eb81e0981461074d578063ef706adf14610778578063ef925399146107a1578063f609d459146107de578063f7b1080814610807576101ee565b8063c550931514610693578063d4863ae4146106d0578063d547741f146106f9578063e3a3c52214610722576101ee565b8063a8b268de116100dc578063a8b268de146105c5578063b842ec4414610602578063bf6a0eac1461063f578063c361a33514610668576101ee565b80638a72ea6a146104f057806391d14854146105325780639cbed5821461056f578063a217fddf1461059a576101ee565b806332665ffb116101855780635d915260116101545780635d9152601461043157806363bbd9d61461046e5780637285a1051461048a578063784c40a3146104b3576101ee565b806332665ffb1461037957806336568abe146103b65780633d8fefe3146103df5780634d83c5d714610408576101ee565b8063248a9ca3116101c1578063248a9ca3146102c15780632807dd4a146102fe5780632d97bd66146103275780632f2ff15d14610350576101ee565b8063012685f4146101f357806301ffc9a7146102305780631115c24d1461026d5780632027e4bd14610298575b600080fd5b3480156101ff57600080fd5b5061021a600480360381019061021591906132f6565b61084b565b6040516102279190613407565b60405180910390f35b34801561023c57600080fd5b5061025760048036038101906102529190613481565b6109c9565b60405161026491906134c9565b60405180910390f35b34801561027957600080fd5b50610282610a43565b60405161028f91906134f3565b60405180910390f35b3480156102a457600080fd5b506102bf60048036038101906102ba919061350e565b610a49565b005b3480156102cd57600080fd5b506102e860048036038101906102e39190613571565b610ec7565b6040516102f591906135ad565b60405180910390f35b34801561030a57600080fd5b506103256004803603810190610320919061350e565b610ee6565b005b34801561033357600080fd5b5061034e6004803603810190610349919061370e565b61105a565b005b34801561035c57600080fd5b50610377600480360381019061037291906137ad565b6112d8565b005b34801561038557600080fd5b506103a0600480360381019061039b919061350e565b6112fa565b6040516103ad9190613941565b60405180910390f35b3480156103c257600080fd5b506103dd60048036038101906103d891906137ad565b611583565b005b3480156103eb57600080fd5b506104066004803603810190610401919061350e565b6115fe565b005b34801561041457600080fd5b5061042f600480360381019061042a9190613963565b61181d565b005b34801561043d57600080fd5b506104586004803603810190610453919061350e565b611ae9565b60405161046591906134f3565b60405180910390f35b6104886004803603810190610483919061350e565b611c2a565b005b34801561049657600080fd5b506104b160048036038101906104ac919061350e565b611e1d565b005b3480156104bf57600080fd5b506104da60048036038101906104d5919061350e565b612164565b6040516104e79190613407565b60405180910390f35b3480156104fc57600080fd5b506105176004803603810190610512919061350e565b6121cf565b60405161052996959493929190613a29565b60405180910390f35b34801561053e57600080fd5b50610559600480360381019061055491906137ad565b612238565b60405161056691906134c9565b60405180910390f35b34801561057b57600080fd5b506105846122a2565b60405161059191906135ad565b60405180910390f35b3480156105a657600080fd5b506105af6122c6565b6040516105bc91906135ad565b60405180910390f35b3480156105d157600080fd5b506105ec60048036038101906105e7919061350e565b6122cd565b6040516105f991906134f3565b60405180910390f35b34801561060e57600080fd5b5061062960048036038101906106249190613a8a565b6122f1565b60405161063691906134f3565b60405180910390f35b34801561064b57600080fd5b5061066660048036038101906106619190613aca565b612322565b005b34801561067457600080fd5b5061067d6124aa565b60405161068a91906134f3565b60405180910390f35b34801561069f57600080fd5b506106ba60048036038101906106b59190613963565b6124b0565b6040516106c791906134f3565b60405180910390f35b3480156106dc57600080fd5b506106f760048036038101906106f2919061350e565b6124e1565b005b34801561070557600080fd5b50610720600480360381019061071b91906137ad565b612643565b005b34801561072e57600080fd5b50610737612665565b60405161074491906135ad565b60405180910390f35b34801561075957600080fd5b50610762612689565b60405161076f9190613407565b60405180910390f35b34801561078457600080fd5b5061079f600480360381019061079a919061350e565b6126e1565b005b3480156107ad57600080fd5b506107c860048036038101906107c39190613b7d565b612883565b6040516107d59190613407565b60405180910390f35b3480156107ea57600080fd5b506108056004803603810190610800919061350e565b61291a565b005b34801561081357600080fd5b5061082e6004803603810190610829919061350e565b612c26565b604051610842989796959493929190613bf4565b60405180910390f35b60606000600560008673ffffffffffffffffffffffffffffffffffffffff1673ffffffffffffffffffffffffffffffffffffffff1681526020019081526020016000209050808054905084106108d6576040517f08c379a00000000000000000000000000000000000000000000000000000000081526004016108cd90613ccc565b60405180910390fd5b600083856108e49190613d1b565b905081805490508111156108fa57818054905090505b600085826109089190613d4f565b67ffffffffffffffff811115610921576109206135e3565b5b60405190808252806020026020018201604052801561094f5781602001602082028036833780820191505090505b50905060008690505b828110156109bb5783818154811061097357610972613d83565b5b906000526020600020015482888361098b9190613d4f565b8151811061099c5761099b613d83565b5b60200260200101818152505080806109b390613db2565b915050610958565b508093505050509392505050565b60007f7965db0b000000000000000000000000000000000000000000000000000000007bffffffffffffffffffffffffffffffffffffffffffffffffffffffff1916827bffffffffffffffffffffffffffffffffffffffffffffffffffffffff19161480610a3c5750610a3b82612dcb565b5b9050919050565b60025481565b610a737fd9d062b29c8756d894f301c5167d214c34d627724cd7fc859ab9329c9330cf5133612238565b610ab2576040517f08c379a0000000000000000000000000000000000000000000000000000000008152600401610aa990613e46565b60405180910390fd5b600060046000838152602001908152602001600020905060046007811115610add57610adc6139b2565b5b8160040160149054906101000a900460ff166007811115610b0157610b006139b2565b5b14610b41576040517f08c379a0000000000000000000000000000000000000000000000000000000008152600401610b3890613eb2565b60405180910390fd5b60058160040160146101000a81548160ff02191690836007811115610b6957610b686139b2565b5b0217905550600081600301549050600082600301819055506000600360008460010154815260200190815260200160002090508260040160009054906101000a900473ffffffffffffffffffffffffffffffffffffffff168160020160006101000a81548173ffffffffffffffffffffffffffffffffffffffff021916908373ffffffffffffffffffffffffffffffffffffffff16021790555060008160020160146101000a81548160ff021916908315150217905550610c2d8160000154612e35565b60008160010160009054906101000a900473ffffffffffffffffffffffffffffffffffffffff1673ffffffffffffffffffffffffffffffffffffffff1683604051610c7790613f03565b60006040518083038185875af1925050503d8060008114610cb4576040519150601f19603f3d011682016040523d82523d6000602084013e610cb9565b606091505b5050905080610cfd576040517f08c379a0000000000000000000000000000000000000000000000000000000008152600401610cf490613f64565b60405180910390fd5b7f67f8ddb132a8a917b98781ad2dd8f4fcbc0a6dd6e2a5d5542deff019adb702a48542604051610d2e929190613f84565b60405180910390a18160010160009054906101000a900473ffffffffffffffffffffffffffffffffffffffff1673ffffffffffffffffffffffffffffffffffffffff167f857ee444bd65e10f00852a82dd145e21cb947a03fa0e6aec962e49f1c63867f1868542604051610da493929190613fad565b60405180910390a2600560008560040160009054906101000a900473ffffffffffffffffffffffffffffffffffffffff1673ffffffffffffffffffffffffffffffffffffffff1673ffffffffffffffffffffffffffffffffffffffff168152602001908152602001600020859080600181540180825580915050600190039060005260206000200160009091909190915055600560008360010160009054906101000a900473ffffffffffffffffffffffffffffffffffffffff1673ffffffffffffffffffffffffffffffffffffffff1673ffffffffffffffffffffffffffffffffffffffff1681526020019081526020016000208590806001815401808255809150506001900390600052602060002001600090919091909150555050505050565b6000806000838152602001908152602001600020600101549050919050565b60006003600083815260200190815260200160002090508060010160009054906101000a900473ffffffffffffffffffffffffffffffffffffffff1673ffffffffffffffffffffffffffffffffffffffff163373ffffffffffffffffffffffffffffffffffffffff1614610f8f576040517f08c379a0000000000000000000000000000000000000000000000000000000008152600401610f8690614030565b60405180910390fd5b8060020160149054906101000a900460ff16610fe0576040517f08c379a0000000000000000000000000000000000000000000000000000000008152600401610fd79061409c565b60405180910390fd5b60008160020160146101000a81548160ff02191690831515021790555061100682612e35565b3373ffffffffffffffffffffffffffffffffffffffff167f018818533256156e181df92fa8f0b7f462d12269231bbc8e9294314962468574834260405161104e929190613f84565b60405180910390a25050565b6001600081548092919061106d90613db2565b919050555060405180610100016040528060015481526020013373ffffffffffffffffffffffffffffffffffffffff1681526020013373ffffffffffffffffffffffffffffffffffffffff168152602001600115158152602001848152602001838152602001858152602001828152506003600060015481526020019081526020016000206000820151816000015560208201518160010160006101000a81548173ffffffffffffffffffffffffffffffffffffffff021916908373ffffffffffffffffffffffffffffffffffffffff16021790555060408201518160020160006101000a81548173ffffffffffffffffffffffffffffffffffffffff021916908373ffffffffffffffffffffffffffffffffffffffff16021790555060608201518160020160146101000a81548160ff0219169083151502179055506080820151816003015560a0820151816004015560c08201518160050190816111d391906142c8565b5060e08201518160060190816111e991906142c8565b50905050600760015490806001815401808255809150506001900390600052602060002001600090919091909150553373ffffffffffffffffffffffffffffffffffffffff167f23fb658c1698b92f5fe511a079c17ecf7965cbc3f1b873328c67e2c3c0820f1f60015442604051611262929190613f84565b60405180910390a2600560003373ffffffffffffffffffffffffffffffffffffffff1673ffffffffffffffffffffffffffffffffffffffff168152602001908152602001600020600154908060018154018082558091505060019003906000526020600020016000909190919091505550505050565b6112e182610ec7565b6112ea81612f8b565b6112f48383612f9f565b50505050565b6113026131db565b6001821015801561131557506001548211155b611354576040517f08c379a000000000000000000000000000000000000000000000000000000000815260040161134b906143e6565b60405180910390fd5b6003600083815260200190815260200160002060405180610100016040529081600082015481526020016001820160009054906101000a900473ffffffffffffffffffffffffffffffffffffffff1673ffffffffffffffffffffffffffffffffffffffff1673ffffffffffffffffffffffffffffffffffffffff1681526020016002820160009054906101000a900473ffffffffffffffffffffffffffffffffffffffff1673ffffffffffffffffffffffffffffffffffffffff1673ffffffffffffffffffffffffffffffffffffffff1681526020016002820160149054906101000a900460ff161515151581526020016003820154815260200160048201548152602001600582018054611468906140eb565b80601f0160208091040260200160405190810160405280929190818152602001828054611494906140eb565b80156114e15780601f106114b6576101008083540402835291602001916114e1565b820191906000526020600020905b8154815290600101906020018083116114c457829003601f168201915b505050505081526020016006820180546114fa906140eb565b80601f0160208091040260200160405190810160405280929190818152602001828054611526906140eb565b80156115735780601f1061154857610100808354040283529160200191611573565b820191906000526020600020905b81548152906001019060200180831161155657829003601f168201915b5050505050815250509050919050565b61158b613090565b73ffffffffffffffffffffffffffffffffffffffff168173ffffffffffffffffffffffffffffffffffffffff16146115ef576040517f6697b23200000000000000000000000000000000000000000000000000000000815260040160405180910390fd5b6115f98282613098565b505050565b600060046000838152602001908152602001600020905060006007811115611629576116286139b2565b5b8160040160149054906101000a900460ff16600781111561164d5761164c6139b2565b5b1461168d576040517f08c379a000000000000000000000000000000000000000000000000000000000815260040161168490614452565b60405180910390fd5b6000600360008360010154815260200190815260200160002090508060010160009054906101000a900473ffffffffffffffffffffffffffffffffffffffff1673ffffffffffffffffffffffffffffffffffffffff163373ffffffffffffffffffffffffffffffffffffffff161461173a576040517f08c379a0000000000000000000000000000000000000000000000000000000008152600401611731906144be565b60405180910390fd5b6000600781111561174e5761174d6139b2565b5b8260040160149054906101000a900460ff166007811115611772576117716139b2565b5b146117b2576040517f08c379a00000000000000000000000000000000000000000000000000000000081526004016117a99061452a565b60405180910390fd5b60018260040160146101000a81548160ff021916908360078111156117da576117d96139b2565b5b02179055507f4812f1579f44d5ecef0b29a61836e238533b635c2e9a72d71814c9e6560980878342604051611810929190613f84565b60405180910390a1505050565b6003600083815260200190815260200160002060020160149054906101000a900460ff16611880576040517f08c379a000000000000000000000000000000000000000000000000000000000815260040161187790614596565b60405180910390fd5b600081116118c3576040517f08c379a00000000000000000000000000000000000000000000000000000000081526004016118ba90614602565b60405180910390fd5b600260008154809291906118d690613db2565b91905055506040518060c001604052806002548152602001838152602001828152602001600081526020013373ffffffffffffffffffffffffffffffffffffffff16815260200160006007811115611931576119306139b2565b5b8152506004600060025481526020019081526020016000206000820151816000015560208201518160010155604082015181600201556060820151816003015560808201518160040160006101000a81548173ffffffffffffffffffffffffffffffffffffffff021916908373ffffffffffffffffffffffffffffffffffffffff16021790555060a08201518160040160146101000a81548160ff021916908360078111156119e3576119e26139b2565b5b02179055509050506006600083815260200190815260200160002060025490806001815401808255809150506001900390600052602060002001600090919091909150553373ffffffffffffffffffffffffffffffffffffffff167fc03cc5c7bb1261d289b21bedf3ceff0be091091ab400d42cb65c27cfb857a137600254848442604051611a759493929190614622565b60405180910390a2600560003373ffffffffffffffffffffffffffffffffffffffff1673ffffffffffffffffffffffffffffffffffffffff16815260200190815260200160002060025490806001815401808255809150506001900390600052602060002001600090919091909150555050565b60008060066000848152602001908152602001600020805480602002602001604051908101604052809291908181526020018280548015611b4957602002820191906000526020600020905b815481526020019060010190808311611b35575b50505050509050600080925060005b8251811015611c22576000838281518110611b7657611b75613d83565b5b60200260200101519050826004600083815260200190815260200160002060020154118015611bec575060006007811115611bb457611bb36139b2565b5b6004600083815260200190815260200160002060040160149054906101000a900460ff166007811115611bea57611be96139b2565b5b145b15611c0e57600460008281526020019081526020016000206002015492508094505b508080611c1a90613db2565b915050611b58565b505050919050565b60006004600083815260200190815260200160002090508060040160009054906101000a900473ffffffffffffffffffffffffffffffffffffffff1673ffffffffffffffffffffffffffffffffffffffff163373ffffffffffffffffffffffffffffffffffffffff1614611cd3576040517f08c379a0000000000000000000000000000000000000000000000000000000008152600401611cca906146b3565b60405180910390fd5b60016007811115611ce757611ce66139b2565b5b8160040160149054906101000a900460ff166007811115611d0b57611d0a6139b2565b5b14611d4b576040517f08c379a0000000000000000000000000000000000000000000000000000000008152600401611d4290614745565b60405180910390fd5b80600201543414611d91576040517f08c379a0000000000000000000000000000000000000000000000000000000008152600401611d88906147b1565b60405180910390fd5b34816003018190555060028160040160146101000a81548160ff02191690836007811115611dc257611dc16139b2565b5b02179055503373ffffffffffffffffffffffffffffffffffffffff167fbc6351b0e2a6a3f646e25885e97f2d7aef98ed917cad825bbcbc26d30bd1f0fb833442604051611e1193929190613fad565b60405180910390a25050565b611e477fd9d062b29c8756d894f301c5167d214c34d627724cd7fc859ab9329c9330cf5133612238565b611e86576040517f08c379a0000000000000000000000000000000000000000000000000000000008152600401611e7d9061481d565b60405180910390fd5b600060046000838152602001908152602001600020905060046007811115611eb157611eb06139b2565b5b8160040160149054906101000a900460ff166007811115611ed557611ed46139b2565b5b14611f15576040517f08c379a0000000000000000000000000000000000000000000000000000000008152600401611f0c90613eb2565b60405180910390fd5b60068160040160146101000a81548160ff02191690836007811115611f3d57611f3c6139b2565b5b02179055506000816003015490506000826003018190555060008260040160009054906101000a900473ffffffffffffffffffffffffffffffffffffffff1673ffffffffffffffffffffffffffffffffffffffff1682604051611f9f90613f03565b60006040518083038185875af1925050503d8060008114611fdc576040519150601f19603f3d011682016040523d82523d6000602084013e611fe1565b606091505b5050905080612025576040517f08c379a000000000000000000000000000000000000000000000000000000000815260040161201c90614889565b60405180910390fd5b7fb77aa878fba207708fd493e5dce268bf64f8a618a5edf1ce10fbd061074ba9e68442604051612056929190613f84565b60405180910390a18260040160009054906101000a900473ffffffffffffffffffffffffffffffffffffffff1673ffffffffffffffffffffffffffffffffffffffff167fcca40337e9b245dc8a1a334e63478fc0d233f6de38e9dd99bae080b1b6951e5a8584426040516120cc93929190613fad565b60405180910390a2600560008460040160009054906101000a900473ffffffffffffffffffffffffffffffffffffffff1673ffffffffffffffffffffffffffffffffffffffff1673ffffffffffffffffffffffffffffffffffffffff16815260200190815260200160002084908060018154018082558091505060019003906000526020600020016000909190919091505550505050565b6060600660008381526020019081526020016000208054806020026020016040519081016040528092919081815260200182805480156121c357602002820191906000526020600020905b8154815260200190600101908083116121af575b50505050509050919050565b60046020528060005260406000206000915090508060000154908060010154908060020154908060030154908060040160009054906101000a900473ffffffffffffffffffffffffffffffffffffffff16908060040160149054906101000a900460ff16905086565b600080600084815260200190815260200160002060000160008373ffffffffffffffffffffffffffffffffffffffff1673ffffffffffffffffffffffffffffffffffffffff16815260200190815260200160002060009054906101000a900460ff16905092915050565b7fd9d062b29c8756d894f301c5167d214c34d627724cd7fc859ab9329c9330cf5181565b6000801b81565b600781815481106122dd57600080fd5b906000526020600020016000915090505481565b6005602052816000526040600020818154811061230d57600080fd5b90600052602060002001600091509150505481565b60006003600087815260200190815260200160002090508060010160009054906101000a900473ffffffffffffffffffffffffffffffffffffffff1673ffffffffffffffffffffffffffffffffffffffff163373ffffffffffffffffffffffffffffffffffffffff16146123cb576040517f08c379a00000000000000000000000000000000000000000000000000000000081526004016123c2906148f5565b60405180910390fd5b8060020160149054906101000a900460ff1661241c576040517f08c379a000000000000000000000000000000000000000000000000000000000815260040161241390614961565b60405180910390fd5b8481600501908161242d91906142c8565b508381600301819055508281600401819055508181600601908161245191906142c8565b503373ffffffffffffffffffffffffffffffffffffffff167f01b00ffa78260d278718a5716abceba124ddf46f5b64eb3f738e677670ae4af6874260405161249a929190613f84565b60405180910390a2505050505050565b60015481565b600660205281600052604060002081815481106124cc57600080fd5b90600052602060002001600091509150505481565b61250b7f273dcf2136c7d8ef632bb8ef13dbca69a8f36fa620c7468671b3153d46a211c033612238565b61254a576040517f08c379a0000000000000000000000000000000000000000000000000000000008152600401612541906149cd565b60405180910390fd5b600060046000838152602001908152602001600020905060026007811115612575576125746139b2565b5b8160040160149054906101000a900460ff166007811115612599576125986139b2565b5b146125d9576040517f08c379a00000000000000000000000000000000000000000000000000000000081526004016125d090614a39565b60405180910390fd5b60048160040160146101000a81548160ff02191690836007811115612601576126006139b2565b5b02179055507f5975e7f3a49c16ee4cc3dee32f1ec1e8a8005dc9570499e4c2efeb20552ecb758242604051612637929190613f84565b60405180910390a15050565b61264c82610ec7565b61265581612f8b565b61265f8383613098565b50505050565b7f273dcf2136c7d8ef632bb8ef13dbca69a8f36fa620c7468671b3153d46a211c081565b606060078054806020026020016040519081016040528092919081815260200182805480156126d757602002820191906000526020600020905b8154815260200190600101908083116126c3575b5050505050905090565b60006004600083815260200190815260200160002090508060040160009054906101000a900473ffffffffffffffffffffffffffffffffffffffff1673ffffffffffffffffffffffffffffffffffffffff163373ffffffffffffffffffffffffffffffffffffffff161461278a576040517f08c379a000000000000000000000000000000000000000000000000000000000815260040161278190614aa5565b60405180910390fd5b6000600781111561279e5761279d6139b2565b5b8160040160149054906101000a900460ff1660078111156127c2576127c16139b2565b5b14612802576040517f08c379a00000000000000000000000000000000000000000000000000000000081526004016127f990614b11565b60405180910390fd5b60078160040160146101000a81548160ff0219169083600781111561282a576128296139b2565b5b02179055503373ffffffffffffffffffffffffffffffffffffffff167fe2dc0bfd2fc658db980184c3f7c091c2f886874e896043b562d5099c8d95b1dd8342604051612877929190613f84565b60405180910390a25050565b6060600560008373ffffffffffffffffffffffffffffffffffffffff1673ffffffffffffffffffffffffffffffffffffffff16815260200190815260200160002080548060200260200160405190810160405280929190818152602001828054801561290e57602002820191906000526020600020905b8154815260200190600101908083116128fa575b50505050509050919050565b60006004600083815260200190815260200160002090506000600360008360010154815260200190815260200160002090508060010160009054906101000a900473ffffffffffffffffffffffffffffffffffffffff1673ffffffffffffffffffffffffffffffffffffffff163373ffffffffffffffffffffffffffffffffffffffff16146129de576040517f08c379a00000000000000000000000000000000000000000000000000000000081526004016129d590614b7d565b60405180910390fd5b600060078111156129f2576129f16139b2565b5b8260040160149054906101000a900460ff166007811115612a1657612a156139b2565b5b14612a56576040517f08c379a0000000000000000000000000000000000000000000000000000000008152600401612a4d9061452a565b60405180910390fd5b60038260040160146101000a81548160ff02191690836007811115612a7e57612a7d6139b2565b5b0217905550600082600301549050600083600301819055506000811115612be75760008360040160009054906101000a900473ffffffffffffffffffffffffffffffffffffffff1673ffffffffffffffffffffffffffffffffffffffff1682604051612ae990613f03565b60006040518083038185875af1925050503d8060008114612b26576040519150601f19603f3d011682016040523d82523d6000602084013e612b2b565b606091505b5050905080612b6f576040517f08c379a0000000000000000000000000000000000000000000000000000000008152600401612b6690614be9565b60405180910390fd5b8360040160009054906101000a900473ffffffffffffffffffffffffffffffffffffffff1673ffffffffffffffffffffffffffffffffffffffff167fcca40337e9b245dc8a1a334e63478fc0d233f6de38e9dd99bae080b1b6951e5a868442604051612bdd93929190613fad565b60405180910390a2505b7fdb7a7d553ae4ce87570a3234260b5d2a2b5ccd2732d113e3c3c1e7bcbd34de6b8442604051612c18929190613f84565b60405180910390a150505050565b60036020528060005260406000206000915090508060000154908060010160009054906101000a900473ffffffffffffffffffffffffffffffffffffffff16908060020160009054906101000a900473ffffffffffffffffffffffffffffffffffffffff16908060020160149054906101000a900460ff1690806003015490806004015490806005018054612cba906140eb565b80601f0160208091040260200160405190810160405280929190818152602001828054612ce6906140eb565b8015612d335780601f10612d0857610100808354040283529160200191612d33565b820191906000526020600020905b815481529060010190602001808311612d1657829003601f168201915b505050505090806006018054612d48906140eb565b80601f0160208091040260200160405190810160405280929190818152602001828054612d74906140eb565b8015612dc15780601f10612d9657610100808354040283529160200191612dc1565b820191906000526020600020905b815481529060010190602001808311612da457829003601f168201915b5050505050905088565b60007f01ffc9a7000000000000000000000000000000000000000000000000000000007bffffffffffffffffffffffffffffffffffffffffffffffffffffffff1916827bffffffffffffffffffffffffffffffffffffffffffffffffffffffff1916149050919050565b60007fffffffffffffffffffffffffffffffffffffffffffffffffffffffffffffffff905060005b600780549050811015612eaa578260078281548110612e7f57612e7e613d83565b5b906000526020600020015403612e9757809150612eaa565b8080612ea290613db2565b915050612e5d565b507fffffffffffffffffffffffffffffffffffffffffffffffffffffffffffffffff8103612f0d576040517f08c379a0000000000000000000000000000000000000000000000000000000008152600401612f0490614961565b60405180910390fd5b60076001600780549050612f219190613d4f565b81548110612f3257612f31613d83565b5b906000526020600020015460078281548110612f5157612f50613d83565b5b90600052602060002001819055506007805480612f7157612f70614c09565b5b600190038181906000526020600020016000905590555050565b612f9c81612f97613090565b61318a565b50565b6000612fab8383612238565b61308557600160008085815260200190815260200160002060000160008473ffffffffffffffffffffffffffffffffffffffff1673ffffffffffffffffffffffffffffffffffffffff16815260200190815260200160002060006101000a81548160ff021916908315150217905550613022613090565b73ffffffffffffffffffffffffffffffffffffffff168273ffffffffffffffffffffffffffffffffffffffff16847f2f8788117e7eff1d82e926ec794901d17c78024a50270940304540a733656f0d60405160405180910390a46001905061308a565b600090505b92915050565b600033905090565b60006130a48383612238565b1561317f57600080600085815260200190815260200160002060000160008473ffffffffffffffffffffffffffffffffffffffff1673ffffffffffffffffffffffffffffffffffffffff16815260200190815260200160002060006101000a81548160ff02191690831515021790555061311c613090565b73ffffffffffffffffffffffffffffffffffffffff168273ffffffffffffffffffffffffffffffffffffffff16847ff6391f5c32d9c69d2a47ea670b442974b53935d1edc7fd64eb21e047a839171b60405160405180910390a460019050613184565b600090505b92915050565b6131948282612238565b6131d75780826040517fe2517d3f0000000000000000000000000000000000000000000000000000000081526004016131ce929190614c38565b60405180910390fd5b5050565b60405180610100016040528060008152602001600073ffffffffffffffffffffffffffffffffffffffff168152602001600073ffffffffffffffffffffffffffffffffffffffff168152602001600015158152602001600081526020016000815260200160608152602001606081525090565b6000604051905090565b600080fd5b600080fd5b600073ffffffffffffffffffffffffffffffffffffffff82169050919050565b600061328d82613262565b9050919050565b61329d81613282565b81146132a857600080fd5b50565b6000813590506132ba81613294565b92915050565b6000819050919050565b6132d3816132c0565b81146132de57600080fd5b50565b6000813590506132f0816132ca565b92915050565b60008060006060848603121561330f5761330e613258565b5b600061331d868287016132ab565b935050602061332e868287016132e1565b925050604061333f868287016132e1565b9150509250925092565b600081519050919050565b600082825260208201905092915050565b6000819050602082019050919050565b61337e816132c0565b82525050565b60006133908383613375565b60208301905092915050565b6000602082019050919050565b60006133b482613349565b6133be8185613354565b93506133c983613365565b8060005b838110156133fa5781516133e18882613384565b97506133ec8361339c565b9250506001810190506133cd565b5085935050505092915050565b6000602082019050818103600083015261342181846133a9565b905092915050565b60007fffffffff0000000000000000000000000000000000000000000000000000000082169050919050565b61345e81613429565b811461346957600080fd5b50565b60008135905061347b81613455565b92915050565b60006020828403121561349757613496613258565b5b60006134a58482850161346c565b91505092915050565b60008115159050919050565b6134c3816134ae565b82525050565b60006020820190506134de60008301846134ba565b92915050565b6134ed816132c0565b82525050565b600060208201905061350860008301846134e4565b92915050565b60006020828403121561352457613523613258565b5b6000613532848285016132e1565b91505092915050565b6000819050919050565b61354e8161353b565b811461355957600080fd5b50565b60008135905061356b81613545565b92915050565b60006020828403121561358757613586613258565b5b60006135958482850161355c565b91505092915050565b6135a78161353b565b82525050565b60006020820190506135c2600083018461359e565b92915050565b600080fd5b600080fd5b6000601f19601f8301169050919050565b7f4e487b7100000000000000000000000000000000000000000000000000000000600052604160045260246000fd5b61361b826135d2565b810181811067ffffffffffffffff8211171561363a576136396135e3565b5b80604052505050565b600061364d61324e565b90506136598282613612565b919050565b600067ffffffffffffffff821115613679576136786135e3565b5b613682826135d2565b9050602081019050919050565b82818337600083830152505050565b60006136b16136ac8461365e565b613643565b9050828152602081018484840111156136cd576136cc6135cd565b5b6136d884828561368f565b509392505050565b600082601f8301126136f5576136f46135c8565b5b813561370584826020860161369e565b91505092915050565b6000806000806080858703121561372857613727613258565b5b600085013567ffffffffffffffff8111156137465761374561325d565b5b613752878288016136e0565b9450506020613763878288016132e1565b9350506040613774878288016132e1565b925050606085013567ffffffffffffffff8111156137955761379461325d565b5b6137a1878288016136e0565b91505092959194509250565b600080604083850312156137c4576137c3613258565b5b60006137d28582860161355c565b92505060206137e3858286016132ab565b9150509250929050565b6137f681613282565b82525050565b613805816134ae565b82525050565b600081519050919050565b600082825260208201905092915050565b60005b8381101561384557808201518184015260208101905061382a565b60008484015250505050565b600061385c8261380b565b6138668185613816565b9350613876818560208601613827565b61387f816135d2565b840191505092915050565b6000610100830160008301516138a36000860182613375565b5060208301516138b660208601826137ed565b5060408301516138c960408601826137ed565b5060608301516138dc60608601826137fc565b5060808301516138ef6080860182613375565b5060a083015161390260a0860182613375565b5060c083015184820360c086015261391a8282613851565b91505060e083015184820360e08601526139348282613851565b9150508091505092915050565b6000602082019050818103600083015261395b818461388a565b905092915050565b6000806040838503121561397a57613979613258565b5b6000613988858286016132e1565b9250506020613999858286016132e1565b9150509250929050565b6139ac81613282565b82525050565b7f4e487b7100000000000000000000000000000000000000000000000000000000600052602160045260246000fd5b600881106139f2576139f16139b2565b5b50565b6000819050613a03826139e1565b919050565b6000613a13826139f5565b9050919050565b613a2381613a08565b82525050565b600060c082019050613a3e60008301896134e4565b613a4b60208301886134e4565b613a5860408301876134e4565b613a6560608301866134e4565b613a7260808301856139a3565b613a7f60a0830184613a1a565b979650505050505050565b60008060408385031215613aa157613aa0613258565b5b6000613aaf858286016132ab565b9250506020613ac0858286016132e1565b9150509250929050565b600080600080600060a08688031215613ae657613ae5613258565b5b6000613af4888289016132e1565b955050602086013567ffffffffffffffff811115613b1557613b1461325d565b5b613b21888289016136e0565b9450506040613b32888289016132e1565b9350506060613b43888289016132e1565b925050608086013567ffffffffffffffff811115613b6457613b6361325d565b5b613b70888289016136e0565b9150509295509295909350565b600060208284031215613b9357613b92613258565b5b6000613ba1848285016132ab565b91505092915050565b600082825260208201905092915050565b6000613bc68261380b565b613bd08185613baa565b9350613be0818560208601613827565b613be9816135d2565b840191505092915050565b600061010082019050613c0a600083018b6134e4565b613c17602083018a6139a3565b613c2460408301896139a3565b613c3160608301886134ba565b613c3e60808301876134e4565b613c4b60a08301866134e4565b81810360c0830152613c5d8185613bbb565b905081810360e0830152613c718184613bbb565b90509998505050505050505050565b7f537461727420696e646578206f7574206f6620626f756e647300000000000000600082015250565b6000613cb6601983613baa565b9150613cc182613c80565b602082019050919050565b60006020820190508181036000830152613ce581613ca9565b9050919050565b7f4e487b7100000000000000000000000000000000000000000000000000000000600052601160045260246000fd5b6000613d26826132c0565b9150613d31836132c0565b9250828201905080821115613d4957613d48613cec565b5b92915050565b6000613d5a826132c0565b9150613d65836132c0565b9250828203905081811115613d7d57613d7c613cec565b5b92915050565b7f4e487b7100000000000000000000000000000000000000000000000000000000600052603260045260246000fd5b6000613dbd826132c0565b91507fffffffffffffffffffffffffffffffffffffffffffffffffffffffffffffffff8203613def57613dee613cec565b5b600182019050919050565b7f4f6e6c7920676f767420617574686f726974792063616e20617070726f766500600082015250565b6000613e30601f83613baa565b9150613e3b82613dfa565b602082019050919050565b60006020820190508181036000830152613e5f81613e23565b9050919050565b7f4f66666572206e6f7420617070726f76656420627920696e73706563746f7200600082015250565b6000613e9c601f83613baa565b9150613ea782613e66565b602082019050919050565b60006020820190508181036000830152613ecb81613e8f565b9050919050565b600081905092915050565b50565b6000613eed600083613ed2565b9150613ef882613edd565b600082019050919050565b6000613f0e82613ee0565b9150819050919050565b7f5472616e7366657220746f2073656c6c6572206661696c656400000000000000600082015250565b6000613f4e601983613baa565b9150613f5982613f18565b602082019050919050565b60006020820190508181036000830152613f7d81613f41565b9050919050565b6000604082019050613f9960008301856134e4565b613fa660208301846134e4565b9392505050565b6000606082019050613fc260008301866134e4565b613fcf60208301856134e4565b613fdc60408301846134e4565b949350505050565b7f4f6e6c792073656c6c65722063616e2063616e63656c206c697374696e670000600082015250565b600061401a601e83613baa565b915061402582613fe4565b602082019050919050565b600060208201905081810360008301526140498161400d565b9050919050565b7f50726f706572747920616c726561647920696e61637469766500000000000000600082015250565b6000614086601983613baa565b915061409182614050565b602082019050919050565b600060208201905081810360008301526140b581614079565b9050919050565b7f4e487b7100000000000000000000000000000000000000000000000000000000600052602260045260246000fd5b6000600282049050600182168061410357607f821691505b602082108103614116576141156140bc565b5b50919050565b60008190508160005260206000209050919050565b60006020601f8301049050919050565b600082821b905092915050565b60006008830261417e7fffffffffffffffffffffffffffffffffffffffffffffffffffffffffffffffff82614141565b6141888683614141565b95508019841693508086168417925050509392505050565b6000819050919050565b60006141c56141c06141bb846132c0565b6141a0565b6132c0565b9050919050565b6000819050919050565b6141df836141aa565b6141f36141eb826141cc565b84845461414e565b825550505050565b600090565b6142086141fb565b6142138184846141d6565b505050565b5b818110156142375761422c600082614200565b600181019050614219565b5050565b601f82111561427c5761424d8161411c565b61425684614131565b81016020851015614265578190505b61427961427185614131565b830182614218565b50505b505050565b600082821c905092915050565b600061429f60001984600802614281565b1980831691505092915050565b60006142b8838361428e565b9150826002028217905092915050565b6142d18261380b565b67ffffffffffffffff8111156142ea576142e96135e3565b5b6142f482546140eb565b6142ff82828561423b565b600060209050601f8311600181146143325760008415614320578287015190505b61432a85826142ac565b865550614392565b601f1984166143408661411c565b60005b8281101561436857848901518255600182019150602085019450602081019050614343565b868310156143855784890151614381601f89168261428e565b8355505b6001600288020188555050505b505050505050565b7f496e76616c69642070726f706572747920494400000000000000000000000000600082015250565b60006143d0601383613baa565b91506143db8261439a565b602082019050919050565b600060208201905081810360008301526143ff816143c3565b9050919050565b7f496e76616c6964207374617465207472616e736974696f6e0000000000000000600082015250565b600061443c601883613baa565b915061444782614406565b602082019050919050565b6000602082019050818103600083015261446b8161442f565b9050919050565b7f4f6e6c792073656c6c65722063616e20616363657074206f6666657200000000600082015250565b60006144a8601c83613baa565b91506144b382614472565b602082019050919050565b600060208201905081810360008301526144d78161449b565b9050919050565b7f4f66666572206e6f742070656e64696e67000000000000000000000000000000600082015250565b6000614514601183613baa565b915061451f826144de565b602082019050919050565b6000602082019050818103600083015261454381614507565b9050919050565b7f50726f7065727479206e6f74206c697374656400000000000000000000000000600082015250565b6000614580601383613baa565b915061458b8261454a565b602082019050919050565b600060208201905081810360008301526145af81614573565b9050919050565b7f4f66666572207072696365206d757374206265203e2030000000000000000000600082015250565b60006145ec601783613baa565b91506145f7826145b6565b602082019050919050565b6000602082019050818103600083015261461b816145df565b9050919050565b600060808201905061463760008301876134e4565b61464460208301866134e4565b61465160408301856134e4565b61465e60608301846134e4565b95945050505050565b7f4f6e6c792062757965722063616e206465706f7369742066756e647300000000600082015250565b600061469d601c83613baa565b91506146a882614667565b602082019050919050565b600060208201905081810360008301526146cc81614690565b9050919050565b7f4f66666572206e6f7420696e20636f727265637420737461746520666f72206660008201527f756e64696e670000000000000000000000000000000000000000000000000000602082015250565b600061472f602683613baa565b915061473a826146d3565b604082019050919050565b6000602082019050818103600083015261475e81614722565b9050919050565b7f4465706f736974206d75737420657175616c206f666665722070726963650000600082015250565b600061479b601e83613baa565b91506147a682614765565b602082019050919050565b600060208201905081810360008301526147ca8161478e565b9050919050565b7f4f6e6c7920676f767420617574686f726974792063616e2072656a6563740000600082015250565b6000614807601e83613baa565b9150614812826147d1565b602082019050919050565b60006020820190508181036000830152614836816147fa565b9050919050565b7f526566756e6420746f206275796572206661696c656400000000000000000000600082015250565b6000614873601683613baa565b915061487e8261483d565b602082019050919050565b600060208201905081810360008301526148a281614866565b9050919050565b7f4f6e6c792073656c6c65722063616e2075706461746500000000000000000000600082015250565b60006148df601683613baa565b91506148ea826148a9565b602082019050919050565b6000602082019050818103600083015261490e816148d2565b9050919050565b7f50726f7065727479206e6f742061637469766500000000000000000000000000600082015250565b600061494b601383613baa565b915061495682614915565b602082019050919050565b6000602082019050818103600083015261497a8161493e565b9050919050565b7f4f6e6c7920696e73706563746f722063616e20617070726f7665000000000000600082015250565b60006149b7601a83613baa565b91506149c282614981565b602082019050919050565b600060208201905081810360008301526149e6816149aa565b9050919050565b7f4f66666572206d7573742062652066756e646564206279206275796572000000600082015250565b6000614a23601d83613baa565b9150614a2e826149ed565b602082019050919050565b60006020820190508181036000830152614a5281614a16565b9050919050565b7f4f6e6c792062757965722063616e2063616e63656c206f666665720000000000600082015250565b6000614a8f601b83613baa565b9150614a9a82614a59565b602082019050919050565b60006020820190508181036000830152614abe81614a82565b9050919050565b7f4f666665722063616e6e6f742062652063616e63656c6c656400000000000000600082015250565b6000614afb601983613baa565b9150614b0682614ac5565b602082019050919050565b60006020820190508181036000830152614b2a81614aee565b9050919050565b7f4f6e6c792073656c6c65722063616e2072656a656374206f6666657200000000600082015250565b6000614b67601c83613baa565b9150614b7282614b31565b602082019050919050565b60006020820190508181036000830152614b9681614b5a565b9050919050565b7f526566756e64206661696c656400000000000000000000000000000000000000600082015250565b6000614bd3600d83613baa565b9150614bde82614b9d565b602082019050919050565b60006020820190508181036000830152614c0281614bc6565b9050919050565b7f4e487b7100000000000000000000000000000000000000000000000000000000600052603160045260246000fd5b6000604082019050614c4d60008301856139a3565b614c5a602083018461359e565b939250505056fea2646970667358221220c27b71070621d20921be1297cc83748f42198f6fc43a3fe46b527a6ce451e57c64736f6c63430008140033",
  "linkReferences": {},
  "deployedLinkReferences": {}
}