{
  "_format": "hh-sol-artifact-1",
  "contractName": "LandRegistry",
  "sourceName": "contracts/LandRegistry.sol",
  "abi": [
    {
      "inputs": [
        {
          "internalType": "address",
          "name": "_inspector",
          "type": "address"
        }
      ],
      "stateMutability": "nonpayable",
      "type": "constructor"
    },
    {
      "inputs": [],
      "name": "AccessControlBadConfirmation",
      "type": "error"
    },
    {
      "inputs": [
        {
          "internalType": "address",
          "name": "account",
          "type": "address"
        },
        {
          "internalType": "bytes32",
          "name": "neededRole",
          "type": "bytes32"
        }
      ],
      "name": "AccessControlUnauthorizedAccount",
      "type": "error"
    },
    {
      "anonymous": false,
      "inputs": [
        {
          "indexed": false,
          "internalType": "uint256",
          "name": "offerId",
          "type": "uint256"
        },
        {
          "indexed": true,
          "internalType": "address",
          "name": "seller",
          "type": "address"
        },
        {
          "indexed": false,
          "internalType": "uint256",
          "name": "amount",
          "type": "uint256"
        }
      ],
      "name": "FundsTransferred",
      "type": "event"
    },
    {
      "anonymous": false,
      "inputs": [
        {
          "indexed": false,
          "internalType": "uint256",
          "name": "offerId",
          "type": "uint256"
        }
      ],
      "name": "InspectorApprovedOffer",
      "type": "event"
    },
    {
      "anonymous": false,
      "inputs": [
        {
          "indexed": false,
          "internalType": "uint256",
          "name": "offerId",
          "type": "uint256"
        },
        {
          "indexed": true,
          "internalType": "address",
          "name": "buyer",
          "type": "address"
        }
      ],
      "name": "OfferCancelled",
      "type": "event"
    },
    {
      "anonymous": false,
      "inputs": [
        {
          "indexed": false,
          "internalType": "uint256",
          "name": "offerId",
          "type": "uint256"
        },
        {
          "indexed": false,
          "internalType": "uint256",
          "name": "propertyId",
          "type": "uint256"
        },
        {
          "indexed": true,
          "internalType": "address",
          "name": "buyer",
          "type": "address"
        },
        {
          "indexed": false,
          "internalType": "uint256",
          "name": "offerPrice",
          "type": "uint256"
        }
      ],
      "name": "OfferSubmitted",
      "type": "event"
    },
    {
      "anonymous": false,
      "inputs": [
        {
          "indexed": false,
          "internalType": "uint256",
          "name": "propertyId",
          "type": "uint256"
        },
        {
          "indexed": true,
          "internalType": "address",
          "name": "seller",
          "type": "address"
        }
      ],
      "name": "PropertyListed",
      "type": "event"
    },
    {
      "anonymous": false,
      "inputs": [
        {
          "indexed": true,
          "internalType": "bytes32",
          "name": "role",
          "type": "bytes32"
        },
        {
          "indexed": true,
          "internalType": "bytes32",
          "name": "previousAdminRole",
          "type": "bytes32"
        },
        {
          "indexed": true,
          "internalType": "bytes32",
          "name": "newAdminRole",
          "type": "bytes32"
        }
      ],
      "name": "RoleAdminChanged",
      "type": "event"
    },
    {
      "anonymous": false,
      "inputs": [
        {
          "indexed": true,
          "internalType": "bytes32",
          "name": "role",
          "type": "bytes32"
        },
        {
          "indexed": true,
          "internalType": "address",
          "name": "account",
          "type": "address"
        },
        {
          "indexed": true,
          "internalType": "address",
          "name": "sender",
          "type": "address"
        }
      ],
      "name": "RoleGranted",
      "type": "event"
    },
    {
      "anonymous": false,
      "inputs": [
        {
          "indexed": true,
          "internalType": "bytes32",
          "name": "role",
          "type": "bytes32"
        },
        {
          "indexed": true,
          "internalType": "address",
          "name": "account",
          "type": "address"
        },
        {
          "indexed": true,
          "internalType": "address",
          "name": "sender",
          "type": "address"
        }
      ],
      "name": "RoleRevoked",
      "type": "event"
    },
    {
      "anonymous": false,
      "inputs": [
        {
          "indexed": false,
          "internalType": "uint256",
          "name": "offerId",
          "type": "uint256"
        }
      ],
      "name": "SellerAcceptedOffer",
      "type": "event"
    },
    {
      "anonymous": false,
      "inputs": [
        {
          "indexed": false,
          "internalType": "uint256",
          "name": "offerId",
          "type": "uint256"
        }
      ],
      "name": "SellerRejectedOffer",
      "type": "event"
    },
    {
      "inputs": [],
      "name": "DEFAULT_ADMIN_ROLE",
      "outputs": [
        {
          "internalType": "bytes32",
          "name": "",
          "type": "bytes32"
        }
      ],
      "stateMutability": "view",
      "type": "function"
    },
    {
      "inputs": [],
      "name": "INSPECTOR_ROLE",
      "outputs": [
        {
          "internalType": "bytes32",
          "name": "",
          "type": "bytes32"
        }
      ],
      "stateMutability": "view",
      "type": "function"
    },
    {
      "inputs": [
        {
          "internalType": "uint256",
          "name": "_propertyId",
          "type": "uint256"
        },
        {
          "internalType": "uint256",
          "name": "_offerIndex",
          "type": "uint256"
        }
      ],
      "name": "cancelOffer",
      "outputs": [],
      "stateMutability": "nonpayable",
      "type": "function"
    },
    {
      "inputs": [
        {
          "internalType": "uint256",
          "name": "_propertyId",
          "type": "uint256"
        }
      ],
      "name": "getOffers",
      "outputs": [
        {
          "components": [
            {
              "internalType": "uint256",
              "name": "id",
              "type": "uint256"
            },
            {
              "internalType": "uint256",
              "name": "propertyId",
              "type": "uint256"
            },
            {
              "internalType": "uint256",
              "name": "offerPrice",
              "type": "uint256"
            },
            {
              "internalType": "address",
              "name": "buyer",
              "type": "address"
            },
            {
              "internalType": "enum LandRegistry.OfferStatus",
              "name": "status",
              "type": "uint8"
            }
          ],
          "internalType": "struct LandRegistry.Offer[]",
          "name": "",
          "type": "tuple[]"
        }
      ],
      "stateMutability": "view",
      "type": "function"
    },
    {
      "inputs": [
        {
          "internalType": "bytes32",
          "name": "role",
          "type": "bytes32"
        }
      ],
      "name": "getRoleAdmin",
      "outputs": [
        {
          "internalType": "bytes32",
          "name": "",
          "type": "bytes32"
        }
      ],
      "stateMutability": "view",
      "type": "function"
    },
    {
      "inputs": [
        {
          "internalType": "bytes32",
          "name": "role",
          "type": "bytes32"
        },
        {
          "internalType": "address",
          "name": "account",
          "type": "address"
        }
      ],
      "name": "grantRole",
      "outputs": [],
      "stateMutability": "nonpayable",
      "type": "function"
    },
    {
      "inputs": [
        {
          "internalType": "bytes32",
          "name": "role",
          "type": "bytes32"
        },
        {
          "internalType": "address",
          "name": "account",
          "type": "address"
        }
      ],
      "name": "hasRole",
      "outputs": [
        {
          "internalType": "bool",
          "name": "",
          "type": "bool"
        }
      ],
      "stateMutability": "view",
      "type": "function"
    },
    {
      "inputs": [
        {
          "internalType": "uint256",
          "name": "_propertyId",
          "type": "uint256"
        },
        {
          "internalType": "uint256",
          "name": "_offerIndex",
          "type": "uint256"
        }
      ],
      "name": "inspectorApproveOffer",
      "outputs": [],
      "stateMutability": "nonpayable",
      "type": "function"
    },
    {
      "inputs": [
        {
          "internalType": "string",
          "name": "_location",
          "type": "string"
        },
        {
          "internalType": "uint256",
          "name": "_askingPrice",
          "type": "uint256"
        }
      ],
      "name": "listProperty",
      "outputs": [],
      "stateMutability": "nonpayable",
      "type": "function"
    },
    {
      "inputs": [],
      "name": "offerCount",
      "outputs": [
        {
          "internalType": "uint256",
          "name": "",
          "type": "uint256"
        }
      ],
      "stateMutability": "view",
      "type": "function"
    },
    {
      "inputs": [
        {
          "internalType": "uint256",
          "name": "",
          "type": "uint256"
        }
      ],
      "name": "properties",
      "outputs": [
        {
          "internalType": "uint256",
          "name": "id",
          "type": "uint256"
        },
        {
          "internalType": "address",
          "name": "seller",
          "type": "address"
        },
        {
          "internalType": "address",
          "name": "owner",
          "type": "address"
        },
        {
          "internalType": "bool",
          "name": "isListed",
          "type": "bool"
        },
        {
          "internalType": "uint256",
          "name": "askingPrice",
          "type": "uint256"
        },
        {
          "internalType": "string",
          "name": "location",
          "type": "string"
        }
      ],
      "stateMutability": "view",
      "type": "function"
    },
    {
      "inputs": [],
      "name": "propertyCount",
      "outputs": [
        {
          "internalType": "uint256",
          "name": "",
          "type": "uint256"
        }
      ],
      "stateMutability": "view",
      "type": "function"
    },
    {
      "inputs": [
        {
          "internalType": "uint256",
          "name": "",
          "type": "uint256"
        },
        {
          "internalType": "uint256",
          "name": "",
          "type": "uint256"
        }
      ],
      "name": "propertyOffers",
      "outputs": [
        {
          "internalType": "uint256",
          "name": "id",
          "type": "uint256"
        },
        {
          "internalType": "uint256",
          "name": "propertyId",
          "type": "uint256"
        },
        {
          "internalType": "uint256",
          "name": "offerPrice",
          "type": "uint256"
        },
        {
          "internalType": "address",
          "name": "buyer",
          "type": "address"
        },
        {
          "internalType": "enum LandRegistry.OfferStatus",
          "name": "status",
          "type": "uint8"
        }
      ],
      "stateMutability": "view",
      "type": "function"
    },
    {
      "inputs": [
        {
          "internalType": "bytes32",
          "name": "role",
          "type": "bytes32"
        },
        {
          "internalType": "address",
          "name": "callerConfirmation",
          "type": "address"
        }
      ],
      "name": "renounceRole",
      "outputs": [],
      "stateMutability": "nonpayable",
      "type": "function"
    },
    {
      "inputs": [
        {
          "internalType": "bytes32",
          "name": "role",
          "type": "bytes32"
        },
        {
          "internalType": "address",
          "name": "account",
          "type": "address"
        }
      ],
      "name": "revokeRole",
      "outputs": [],
      "stateMutability": "nonpayable",
      "type": "function"
    },
    {
      "inputs": [
        {
          "internalType": "uint256",
          "name": "_propertyId",
          "type": "uint256"
        },
        {
          "internalType": "uint256",
          "name": "_offerIndex",
          "type": "uint256"
        }
      ],
      "name": "sellerAcceptOffer",
      "outputs": [],
      "stateMutability": "nonpayable",
      "type": "function"
    },
    {
      "inputs": [
        {
          "internalType": "uint256",
          "name": "_propertyId",
          "type": "uint256"
        },
        {
          "internalType": "uint256",
          "name": "_offerIndex",
          "type": "uint256"
        }
      ],
      "name": "sellerRejectOffer",
      "outputs": [],
      "stateMutability": "nonpayable",
      "type": "function"
    },
    {
      "inputs": [
        {
          "internalType": "uint256",
          "name": "_propertyId",
          "type": "uint256"
        }
      ],
      "name": "submitOffer",
      "outputs": [],
      "stateMutability": "payable",
      "type": "function"
    },
    {
      "inputs": [
        {
          "internalType": "bytes4",
          "name": "interfaceId",
          "type": "bytes4"
        }
      ],
      "name": "supportsInterface",
      "outputs": [
        {
          "internalType": "bool",
          "name": "",
          "type": "bool"
        }
      ],
      "stateMutability": "view",
      "type": "function"
    }
  ],
  "bytecode": "0x60806040523480156200001157600080fd5b5060405162002cae38038062002cae833981810160405281019062000037919062000266565b6200004c6000801b336200008760201b60201c565b506200007f7f273dcf2136c7d8ef632bb8ef13dbca69a8f36fa620c7468671b3153d46a211c0826200008760201b60201c565b505062000298565b60006200009b83836200018a60201b60201c565b6200017f57600160008085815260200190815260200160002060000160008473ffffffffffffffffffffffffffffffffffffffff1673ffffffffffffffffffffffffffffffffffffffff16815260200190815260200160002060006101000a81548160ff0219169083151502179055506200011b620001f460201b60201c565b73ffffffffffffffffffffffffffffffffffffffff168273ffffffffffffffffffffffffffffffffffffffff16847f2f8788117e7eff1d82e926ec794901d17c78024a50270940304540a733656f0d60405160405180910390a46001905062000184565b600090505b92915050565b600080600084815260200190815260200160002060000160008373ffffffffffffffffffffffffffffffffffffffff1673ffffffffffffffffffffffffffffffffffffffff16815260200190815260200160002060009054906101000a900460ff16905092915050565b600033905090565b600080fd5b600073ffffffffffffffffffffffffffffffffffffffff82169050919050565b60006200022e8262000201565b9050919050565b620002408162000221565b81146200024c57600080fd5b50565b600081519050620002608162000235565b92915050565b6000602082840312156200027f576200027e620001fc565b5b60006200028f848285016200024f565b91505092915050565b612a0680620002a86000396000f3fe6080604052600436106101145760003560e01c8063a217fddf116100a0578063d547741f11610064578063d547741f146103a4578063de9476ad146103cd578063dfa49e6f146103f6578063e3a3c52214610433578063f7b108081461045e57610114565b8063a217fddf146102bb578063c361a335146102e6578063c550931514610311578063c8fda83614610352578063d45557cc1461037b57610114565b80632f2ff15d116100e75780632f2ff15d146101e757806336568abe146102105780636f65c7171461023957806391d14854146102555780639b5546a51461029257610114565b806301ffc9a7146101195780631115c24d146101565780631e95afe514610181578063248a9ca3146101aa575b600080fd5b34801561012557600080fd5b50610140600480360381019061013b9190611b2b565b6104a0565b60405161014d9190611b73565b60405180910390f35b34801561016257600080fd5b5061016b61051a565b6040516101789190611ba7565b60405180910390f35b34801561018d57600080fd5b506101a860048036038101906101a39190611bee565b610520565b005b3480156101b657600080fd5b506101d160048036038101906101cc9190611c64565b6107cb565b6040516101de9190611ca0565b60405180910390f35b3480156101f357600080fd5b5061020e60048036038101906102099190611d19565b6107ea565b005b34801561021c57600080fd5b5061023760048036038101906102329190611d19565b61080c565b005b610253600480360381019061024e9190611d59565b610887565b005b34801561026157600080fd5b5061027c60048036038101906102779190611d19565b610acd565b6040516102899190611b73565b60405180910390f35b34801561029e57600080fd5b506102b960048036038101906102b49190611bee565b610b37565b005b3480156102c757600080fd5b506102d0610cfd565b6040516102dd9190611ca0565b60405180910390f35b3480156102f257600080fd5b506102fb610d04565b6040516103089190611ba7565b60405180910390f35b34801561031d57600080fd5b5061033860048036038101906103339190611bee565b610d0a565b604051610349959493929190611e0c565b60405180910390f35b34801561035e57600080fd5b5061037960048036038101906103749190611bee565b610d8a565b005b34801561038757600080fd5b506103a2600480360381019061039d9190611bee565b6110ca565b005b3480156103b057600080fd5b506103cb60048036038101906103c69190611d19565b611398565b005b3480156103d957600080fd5b506103f460048036038101906103ef9190611ec4565b6113ba565b005b34801561040257600080fd5b5061041d60048036038101906104189190611d59565b6115b9565b60405161042a9190612068565b60405180910390f35b34801561043f57600080fd5b506104486116da565b6040516104559190611ca0565b60405180910390f35b34801561046a57600080fd5b5061048560048036038101906104809190611d59565b6116fe565b6040516104979695949392919061211a565b60405180910390f35b60007f7965db0b000000000000000000000000000000000000000000000000000000007bffffffffffffffffffffffffffffffffffffffffffffffffffffffff1916827bffffffffffffffffffffffffffffffffffffffffffffffffffffffff1916148061051357506105128261180f565b5b9050919050565b60025481565b60006003600084815260200190815260200160002090508060010160009054906101000a900473ffffffffffffffffffffffffffffffffffffffff1673ffffffffffffffffffffffffffffffffffffffff163373ffffffffffffffffffffffffffffffffffffffff16146105c9576040517f08c379a00000000000000000000000000000000000000000000000000000000081526004016105c0906121ce565b60405180910390fd5b60006004600085815260200190815260200160002083815481106105f0576105ef6121ee565b5b906000526020600020906004020190506000600481111561061457610613611d95565b5b8160030160149054906101000a900460ff16600481111561063857610637611d95565b5b14610678576040517f08c379a000000000000000000000000000000000000000000000000000000000815260040161066f90612269565b60405180910390fd5b60038160030160146101000a81548160ff021916908360048111156106a05761069f611d95565b5b02179055506000816002015490506000826002018190555060008260030160009054906101000a900473ffffffffffffffffffffffffffffffffffffffff1673ffffffffffffffffffffffffffffffffffffffff1682604051610702906122ba565b60006040518083038185875af1925050503d806000811461073f576040519150601f19603f3d011682016040523d82523d6000602084013e610744565b606091505b5050905080610788576040517f08c379a000000000000000000000000000000000000000000000000000000000815260040161077f9061231b565b60405180910390fd5b7f09d7e598b2780c40405154a974920df99d860ce1bf82029ba713a0cb64efa2b883600001546040516107bb9190611ba7565b60405180910390a1505050505050565b6000806000838152602001908152602001600020600101549050919050565b6107f3826107cb565b6107fc81611879565b610806838361188d565b50505050565b61081461197e565b73ffffffffffffffffffffffffffffffffffffffff168173ffffffffffffffffffffffffffffffffffffffff1614610878576040517f6697b23200000000000000000000000000000000000000000000000000000000815260040160405180910390fd5b6108828282611986565b505050565b60006003600083815260200190815260200160002090508060020160149054906101000a900460ff166108ef576040517f08c379a00000000000000000000000000000000000000000000000000000000081526004016108e690612387565b60405180910390fd5b60003411610932576040517f08c379a0000000000000000000000000000000000000000000000000000000008152600401610929906123f3565b60405180910390fd5b6002600081548092919061094590612442565b919050555060006040518060a0016040528060025481526020018481526020013481526020013373ffffffffffffffffffffffffffffffffffffffff1681526020016000600481111561099b5761099a611d95565b5b81525090506004600084815260200190815260200160002081908060018154018082558091505060019003906000526020600020906004020160009091909190915060008201518160000155602082015181600101556040820151816002015560608201518160030160006101000a81548173ffffffffffffffffffffffffffffffffffffffff021916908373ffffffffffffffffffffffffffffffffffffffff16021790555060808201518160030160146101000a81548160ff02191690836004811115610a6d57610a6c611d95565b5b021790555050503373ffffffffffffffffffffffffffffffffffffffff167f5e2ef1c6c0901ffb074b1042cef3c9f6c7b612b909784786303a8915a7bddf366002548534604051610ac09392919061248a565b60405180910390a2505050565b600080600084815260200190815260200160002060000160008373ffffffffffffffffffffffffffffffffffffffff1673ffffffffffffffffffffffffffffffffffffffff16815260200190815260200160002060009054906101000a900460ff16905092915050565b60006003600084815260200190815260200160002090508060010160009054906101000a900473ffffffffffffffffffffffffffffffffffffffff1673ffffffffffffffffffffffffffffffffffffffff163373ffffffffffffffffffffffffffffffffffffffff1614610be0576040517f08c379a0000000000000000000000000000000000000000000000000000000008152600401610bd7906121ce565b60405180910390fd5b6000600460008581526020019081526020016000208381548110610c0757610c066121ee565b5b9060005260206000209060040201905060006004811115610c2b57610c2a611d95565b5b8160030160149054906101000a900460ff166004811115610c4f57610c4e611d95565b5b14610c8f576040517f08c379a0000000000000000000000000000000000000000000000000000000008152600401610c8690612269565b60405180910390fd5b60018160030160146101000a81548160ff02191690836004811115610cb757610cb6611d95565b5b02179055507f99e6d559f077f9e114c1ad70be9afb682b2e48bcbec1a9a1d24e52bec406e0158160000154604051610cef9190611ba7565b60405180910390a150505050565b6000801b81565b60015481565b60046020528160005260406000208181548110610d2657600080fd5b9060005260206000209060040201600091509150508060000154908060010154908060020154908060030160009054906101000a900473ffffffffffffffffffffffffffffffffffffffff16908060030160149054906101000a900460ff16905085565b7f273dcf2136c7d8ef632bb8ef13dbca69a8f36fa620c7468671b3153d46a211c0610db481611879565b6000600460008581526020019081526020016000208381548110610ddb57610dda6121ee565b5b90600052602060002090600402019050600060036000868152602001908152602001600020905060016004811115610e1657610e15611d95565b5b8260030160149054906101000a900460ff166004811115610e3a57610e39611d95565b5b14610e7a576040517f08c379a0000000000000000000000000000000000000000000000000000000008152600401610e719061250d565b60405180910390fd5b60028260030160146101000a81548160ff02191690836004811115610ea257610ea1611d95565b5b02179055506000826002015490506000836002018190555060008260010160009054906101000a900473ffffffffffffffffffffffffffffffffffffffff1673ffffffffffffffffffffffffffffffffffffffff1682604051610f04906122ba565b60006040518083038185875af1925050503d8060008114610f41576040519150601f19603f3d011682016040523d82523d6000602084013e610f46565b606091505b5050905080610f8a576040517f08c379a0000000000000000000000000000000000000000000000000000000008152600401610f8190612579565b60405180910390fd5b8360030160009054906101000a900473ffffffffffffffffffffffffffffffffffffffff168360020160006101000a81548173ffffffffffffffffffffffffffffffffffffffff021916908373ffffffffffffffffffffffffffffffffffffffff16021790555060008360020160146101000a81548160ff0219169083151502179055507fd5bb6536ce397bd7a8f554965003a1818292817278a88319045de062c80ecd0c84600001546040516110419190611ba7565b60405180910390a18260010160009054906101000a900473ffffffffffffffffffffffffffffffffffffffff1673ffffffffffffffffffffffffffffffffffffffff167fe90ae330e5aefc2a73ddff0dd88bcaf8f4a0629d6553a2a85b22cac3d5f4a19e8560000154846040516110b9929190612599565b60405180910390a250505050505050565b60006004600084815260200190815260200160002082815481106110f1576110f06121ee565b5b906000526020600020906004020190508060030160009054906101000a900473ffffffffffffffffffffffffffffffffffffffff1673ffffffffffffffffffffffffffffffffffffffff163373ffffffffffffffffffffffffffffffffffffffff1614611193576040517f08c379a000000000000000000000000000000000000000000000000000000000815260040161118a9061260e565b60405180910390fd5b600060048111156111a7576111a6611d95565b5b8160030160149054906101000a900460ff1660048111156111cb576111ca611d95565b5b1461120b576040517f08c379a00000000000000000000000000000000000000000000000000000000081526004016112029061267a565b60405180910390fd5b60048160030160146101000a81548160ff0219169083600481111561123357611232611d95565b5b02179055506000816002015490506000826002018190555060008260030160009054906101000a900473ffffffffffffffffffffffffffffffffffffffff1673ffffffffffffffffffffffffffffffffffffffff1682604051611295906122ba565b60006040518083038185875af1925050503d80600081146112d2576040519150601f19603f3d011682016040523d82523d6000602084013e6112d7565b606091505b505090508061131b576040517f08c379a00000000000000000000000000000000000000000000000000000000081526004016113129061231b565b60405180910390fd5b8260030160009054906101000a900473ffffffffffffffffffffffffffffffffffffffff1673ffffffffffffffffffffffffffffffffffffffff167f1f51377b3e685a0e2419f9bb4ba7c07ec54936353ba3d0fb3c6538dab676622284600001546040516113899190611ba7565b60405180910390a25050505050565b6113a1826107cb565b6113aa81611879565b6113b48383611986565b50505050565b600160008154809291906113cd90612442565b91905055506040518060c0016040528060015481526020013373ffffffffffffffffffffffffffffffffffffffff1681526020013373ffffffffffffffffffffffffffffffffffffffff16815260200160011515815260200182815260200184848080601f016020809104026020016040519081016040528093929190818152602001838380828437600081840152601f19601f820116905080830192505050505050508152506003600060015481526020019081526020016000206000820151816000015560208201518160010160006101000a81548173ffffffffffffffffffffffffffffffffffffffff021916908373ffffffffffffffffffffffffffffffffffffffff16021790555060408201518160020160006101000a81548173ffffffffffffffffffffffffffffffffffffffff021916908373ffffffffffffffffffffffffffffffffffffffff16021790555060608201518160020160146101000a81548160ff0219169083151502179055506080820151816003015560a082015181600401908161156091906128d5565b509050503373ffffffffffffffffffffffffffffffffffffffff167ff87f2a75e739b4da82608cb2e6016f1e1d5059321f8ea6869955aeba65012c756001546040516115ac9190611ba7565b60405180910390a2505050565b606060046000838152602001908152602001600020805480602002602001604051908101604052809291908181526020016000905b828210156116cf57838290600052602060002090600402016040518060a00160405290816000820154815260200160018201548152602001600282015481526020016003820160009054906101000a900473ffffffffffffffffffffffffffffffffffffffff1673ffffffffffffffffffffffffffffffffffffffff1673ffffffffffffffffffffffffffffffffffffffff1681526020016003820160149054906101000a900460ff1660048111156116aa576116a9611d95565b5b60048111156116bc576116bb611d95565b5b81525050815260200190600101906115ee565b505050509050919050565b7f273dcf2136c7d8ef632bb8ef13dbca69a8f36fa620c7468671b3153d46a211c081565b60036020528060005260406000206000915090508060000154908060010160009054906101000a900473ffffffffffffffffffffffffffffffffffffffff16908060020160009054906101000a900473ffffffffffffffffffffffffffffffffffffffff16908060020160149054906101000a900460ff169080600301549080600401805461178c906126f8565b80601f01602080910402602001604051908101604052809291908181526020018280546117b8906126f8565b80156118055780601f106117da57610100808354040283529160200191611805565b820191906000526020600020905b8154815290600101906020018083116117e857829003601f168201915b5050505050905086565b60007f01ffc9a7000000000000000000000000000000000000000000000000000000007bffffffffffffffffffffffffffffffffffffffffffffffffffffffff1916827bffffffffffffffffffffffffffffffffffffffffffffffffffffffff1916149050919050565b61188a8161188561197e565b611a78565b50565b60006118998383610acd565b61197357600160008085815260200190815260200160002060000160008473ffffffffffffffffffffffffffffffffffffffff1673ffffffffffffffffffffffffffffffffffffffff16815260200190815260200160002060006101000a81548160ff02191690831515021790555061191061197e565b73ffffffffffffffffffffffffffffffffffffffff168273ffffffffffffffffffffffffffffffffffffffff16847f2f8788117e7eff1d82e926ec794901d17c78024a50270940304540a733656f0d60405160405180910390a460019050611978565b600090505b92915050565b600033905090565b60006119928383610acd565b15611a6d57600080600085815260200190815260200160002060000160008473ffffffffffffffffffffffffffffffffffffffff1673ffffffffffffffffffffffffffffffffffffffff16815260200190815260200160002060006101000a81548160ff021916908315150217905550611a0a61197e565b73ffffffffffffffffffffffffffffffffffffffff168273ffffffffffffffffffffffffffffffffffffffff16847ff6391f5c32d9c69d2a47ea670b442974b53935d1edc7fd64eb21e047a839171b60405160405180910390a460019050611a72565b600090505b92915050565b611a828282610acd565b611ac55780826040517fe2517d3f000000000000000000000000000000000000000000000000000000008152600401611abc9291906129a7565b60405180910390fd5b5050565b600080fd5b600080fd5b60007fffffffff0000000000000000000000000000000000000000000000000000000082169050919050565b611b0881611ad3565b8114611b1357600080fd5b50565b600081359050611b2581611aff565b92915050565b600060208284031215611b4157611b40611ac9565b5b6000611b4f84828501611b16565b91505092915050565b60008115159050919050565b611b6d81611b58565b82525050565b6000602082019050611b886000830184611b64565b92915050565b6000819050919050565b611ba181611b8e565b82525050565b6000602082019050611bbc6000830184611b98565b92915050565b611bcb81611b8e565b8114611bd657600080fd5b50565b600081359050611be881611bc2565b92915050565b60008060408385031215611c0557611c04611ac9565b5b6000611c1385828601611bd9565b9250506020611c2485828601611bd9565b9150509250929050565b6000819050919050565b611c4181611c2e565b8114611c4c57600080fd5b50565b600081359050611c5e81611c38565b92915050565b600060208284031215611c7a57611c79611ac9565b5b6000611c8884828501611c4f565b91505092915050565b611c9a81611c2e565b82525050565b6000602082019050611cb56000830184611c91565b92915050565b600073ffffffffffffffffffffffffffffffffffffffff82169050919050565b6000611ce682611cbb565b9050919050565b611cf681611cdb565b8114611d0157600080fd5b50565b600081359050611d1381611ced565b92915050565b60008060408385031215611d3057611d2f611ac9565b5b6000611d3e85828601611c4f565b9250506020611d4f85828601611d04565b9150509250929050565b600060208284031215611d6f57611d6e611ac9565b5b6000611d7d84828501611bd9565b91505092915050565b611d8f81611cdb565b82525050565b7f4e487b7100000000000000000000000000000000000000000000000000000000600052602160045260246000fd5b60058110611dd557611dd4611d95565b5b50565b6000819050611de682611dc4565b919050565b6000611df682611dd8565b9050919050565b611e0681611deb565b82525050565b600060a082019050611e216000830188611b98565b611e2e6020830187611b98565b611e3b6040830186611b98565b611e486060830185611d86565b611e556080830184611dfd565b9695505050505050565b600080fd5b600080fd5b600080fd5b60008083601f840112611e8457611e83611e5f565b5b8235905067ffffffffffffffff811115611ea157611ea0611e64565b5b602083019150836001820283011115611ebd57611ebc611e69565b5b9250929050565b600080600060408486031215611edd57611edc611ac9565b5b600084013567ffffffffffffffff811115611efb57611efa611ace565b5b611f0786828701611e6e565b93509350506020611f1a86828701611bd9565b9150509250925092565b600081519050919050565b600082825260208201905092915050565b6000819050602082019050919050565b611f5981611b8e565b82525050565b611f6881611cdb565b82525050565b611f7781611deb565b82525050565b60a082016000820151611f936000850182611f50565b506020820151611fa66020850182611f50565b506040820151611fb96040850182611f50565b506060820151611fcc6060850182611f5f565b506080820151611fdf6080850182611f6e565b50505050565b6000611ff18383611f7d565b60a08301905092915050565b6000602082019050919050565b600061201582611f24565b61201f8185611f2f565b935061202a83611f40565b8060005b8381101561205b5781516120428882611fe5565b975061204d83611ffd565b92505060018101905061202e565b5085935050505092915050565b60006020820190508181036000830152612082818461200a565b905092915050565b600081519050919050565b600082825260208201905092915050565b60005b838110156120c45780820151818401526020810190506120a9565b60008484015250505050565b6000601f19601f8301169050919050565b60006120ec8261208a565b6120f68185612095565b93506121068185602086016120a6565b61210f816120d0565b840191505092915050565b600060c08201905061212f6000830189611b98565b61213c6020830188611d86565b6121496040830187611d86565b6121566060830186611b64565b6121636080830185611b98565b81810360a083015261217581846120e1565b9050979650505050505050565b7f4e6f742070726f70657274792073656c6c657200000000000000000000000000600082015250565b60006121b8601383612095565b91506121c382612182565b602082019050919050565b600060208201905081810360008301526121e7816121ab565b9050919050565b7f4e487b7100000000000000000000000000000000000000000000000000000000600052603260045260246000fd5b7f4f66666572206e6f742076616c69640000000000000000000000000000000000600082015250565b6000612253600f83612095565b915061225e8261221d565b602082019050919050565b6000602082019050818103600083015261228281612246565b9050919050565b600081905092915050565b50565b60006122a4600083612289565b91506122af82612294565b600082019050919050565b60006122c582612297565b9150819050919050565b7f526566756e64206661696c656400000000000000000000000000000000000000600082015250565b6000612305600d83612095565b9150612310826122cf565b602082019050919050565b60006020820190508181036000830152612334816122f8565b9050919050565b7f50726f7065727479206e6f74206c697374656400000000000000000000000000600082015250565b6000612371601383612095565b915061237c8261233b565b602082019050919050565b600060208201905081810360008301526123a081612364565b9050919050565b7f4d75737420696e636c7564652066756e64730000000000000000000000000000600082015250565b60006123dd601283612095565b91506123e8826123a7565b602082019050919050565b6000602082019050818103600083015261240c816123d0565b9050919050565b7f4e487b7100000000000000000000000000000000000000000000000000000000600052601160045260246000fd5b600061244d82611b8e565b91507fffffffffffffffffffffffffffffffffffffffffffffffffffffffffffffffff820361247f5761247e612413565b5b600182019050919050565b600060608201905061249f6000830186611b98565b6124ac6020830185611b98565b6124b96040830184611b98565b949350505050565b7f4f66666572206e6f742061636365707465640000000000000000000000000000600082015250565b60006124f7601283612095565b9150612502826124c1565b602082019050919050565b60006020820190508181036000830152612526816124ea565b9050919050565b7f5061796d656e74206661696c6564000000000000000000000000000000000000600082015250565b6000612563600e83612095565b915061256e8261252d565b602082019050919050565b6000602082019050818103600083015261259281612556565b9050919050565b60006040820190506125ae6000830185611b98565b6125bb6020830184611b98565b9392505050565b7f4e6f74206f666665722062757965720000000000000000000000000000000000600082015250565b60006125f8600f83612095565b9150612603826125c2565b602082019050919050565b60006020820190508181036000830152612627816125eb565b9050919050565b7f43616e6e6f742063616e63656c206e6f77000000000000000000000000000000600082015250565b6000612664601183612095565b915061266f8261262e565b602082019050919050565b6000602082019050818103600083015261269381612657565b9050919050565b7f4e487b7100000000000000000000000000000000000000000000000000000000600052604160045260246000fd5b7f4e487b7100000000000000000000000000000000000000000000000000000000600052602260045260246000fd5b6000600282049050600182168061271057607f821691505b602082108103612723576127226126c9565b5b50919050565b60008190508160005260206000209050919050565b60006020601f8301049050919050565b600082821b905092915050565b60006008830261278b7fffffffffffffffffffffffffffffffffffffffffffffffffffffffffffffffff8261274e565b612795868361274e565b95508019841693508086168417925050509392505050565b6000819050919050565b60006127d26127cd6127c884611b8e565b6127ad565b611b8e565b9050919050565b6000819050919050565b6127ec836127b7565b6128006127f8826127d9565b84845461275b565b825550505050565b600090565b612815612808565b6128208184846127e3565b505050565b5b818110156128445761283960008261280d565b600181019050612826565b5050565b601f8211156128895761285a81612729565b6128638461273e565b81016020851015612872578190505b61288661287e8561273e565b830182612825565b50505b505050565b600082821c905092915050565b60006128ac6000198460080261288e565b1980831691505092915050565b60006128c5838361289b565b9150826002028217905092915050565b6128de8261208a565b67ffffffffffffffff8111156128f7576128f661269a565b5b61290182546126f8565b61290c828285612848565b600060209050601f83116001811461293f576000841561292d578287015190505b61293785826128b9565b86555061299f565b601f19841661294d86612729565b60005b8281101561297557848901518255600182019150602085019450602081019050612950565b86831015612992578489015161298e601f89168261289b565b8355505b6001600288020188555050505b505050505050565b60006040820190506129bc6000830185611d86565b6129c96020830184611c91565b939250505056fea26469706673582212207d03d9674569d5a6f671b56a4cd40db72fe4e4eab503c95c54b089638c3218d664736f6c63430008140033",
  "linkReferences": {},
  "deployedLinkReferences": {}
}