{
  "_format": "hh-sol-artifact-1",
  "contractName": "LandRegistry",
  "sourceName": "contracts/LandRegistry.sol",
  "abi": [
    {
      "inputs": [
        {
          "internalType": "address",
          "name": "_inspector",
          "type": "address"
        }
      ],
      "stateMutability": "nonpayable",
      "type": "constructor"
    },
    {
      "inputs": [],
      "name": "AccessControlBadConfirmation",
      "type": "error"
    },
    {
      "inputs": [
        {
          "internalType": "address",
          "name": "account",
          "type": "address"
        },
        {
          "internalType": "bytes32",
          "name": "neededRole",
          "type": "bytes32"
        }
      ],
      "name": "AccessControlUnauthorizedAccount",
      "type": "error"
    },
    {
      "anonymous": false,
      "inputs": [
        {
          "indexed": false,
          "internalType": "uint256",
          "name": "offerId",
          "type": "uint256"
        },
        {
          "indexed": true,
          "internalType": "address",
          "name": "buyer",
          "type": "address"
        },
        {
          "indexed": false,
          "internalType": "uint256",
          "name": "amount",
          "type": "uint256"
        },
        {
          "indexed": false,
          "internalType": "uint256",
          "name": "timestamp",
          "type": "uint256"
        }
      ],
      "name": "EscrowFunded",
      "type": "event"
    },
    {
      "anonymous": false,
      "inputs": [
        {
          "indexed": false,
          "internalType": "uint256",
          "name": "offerId",
          "type": "uint256"
        },
        {
          "indexed": true,
          "internalType": "address",
          "name": "recipient",
          "type": "address"
        },
        {
          "indexed": false,
          "internalType": "uint256",
          "name": "amount",
          "type": "uint256"
        },
        {
          "indexed": false,
          "internalType": "uint256",
          "name": "timestamp",
          "type": "uint256"
        }
      ],
      "name": "FundsRefunded",
      "type": "event"
    },
    {
      "anonymous": false,
      "inputs": [
        {
          "indexed": false,
          "internalType": "uint256",
          "name": "offerId",
          "type": "uint256"
        },
        {
          "indexed": true,
          "internalType": "address",
          "name": "recipient",
          "type": "address"
        },
        {
          "indexed": false,
          "internalType": "uint256",
          "name": "amount",
          "type": "uint256"
        },
        {
          "indexed": false,
          "internalType": "uint256",
          "name": "timestamp",
          "type": "uint256"
        }
      ],
      "name": "FundsTransferred",
      "type": "event"
    },
    {
      "anonymous": false,
      "inputs": [
        {
          "indexed": false,
          "internalType": "uint256",
          "name": "offerId",
          "type": "uint256"
        },
        {
          "indexed": false,
          "internalType": "uint256",
          "name": "timestamp",
          "type": "uint256"
        }
      ],
      "name": "InspectorApprovedOffer",
      "type": "event"
    },
    {
      "anonymous": false,
      "inputs": [
        {
          "indexed": false,
          "internalType": "uint256",
          "name": "offerId",
          "type": "uint256"
        },
        {
          "indexed": true,
          "internalType": "address",
          "name": "buyer",
          "type": "address"
        },
        {
          "indexed": false,
          "internalType": "uint256",
          "name": "timestamp",
          "type": "uint256"
        }
      ],
      "name": "OfferCancelled",
      "type": "event"
    },
    {
      "anonymous": false,
      "inputs": [
        {
          "indexed": false,
          "internalType": "uint256",
          "name": "offerId",
          "type": "uint256"
        },
        {
          "indexed": false,
          "internalType": "uint256",
          "name": "propertyId",
          "type": "uint256"
        },
        {
          "indexed": true,
          "internalType": "address",
          "name": "buyer",
          "type": "address"
        },
        {
          "indexed": false,
          "internalType": "uint256",
          "name": "offerPrice",
          "type": "uint256"
        },
        {
          "indexed": false,
          "internalType": "uint256",
          "name": "timestamp",
          "type": "uint256"
        }
      ],
      "name": "OfferSubmitted",
      "type": "event"
    },
    {
      "anonymous": false,
      "inputs": [
        {
          "indexed": false,
          "internalType": "uint256",
          "name": "propertyId",
          "type": "uint256"
        },
        {
          "indexed": true,
          "internalType": "address",
          "name": "seller",
          "type": "address"
        },
        {
          "indexed": false,
          "internalType": "uint256",
          "name": "timestamp",
          "type": "uint256"
        }
      ],
      "name": "PropertyCancelled",
      "type": "event"
    },
    {
      "anonymous": false,
      "inputs": [
        {
          "indexed": false,
          "internalType": "uint256",
          "name": "propertyId",
          "type": "uint256"
        },
        {
          "indexed": true,
          "internalType": "address",
          "name": "seller",
          "type": "address"
        },
        {
          "indexed": false,
          "internalType": "uint256",
          "name": "timestamp",
          "type": "uint256"
        }
      ],
      "name": "PropertyListed",
      "type": "event"
    },
    {
      "anonymous": false,
      "inputs": [
        {
          "indexed": false,
          "internalType": "uint256",
          "name": "propertyId",
          "type": "uint256"
        },
        {
          "indexed": true,
          "internalType": "address",
          "name": "seller",
          "type": "address"
        },
        {
          "indexed": false,
          "internalType": "uint256",
          "name": "timestamp",
          "type": "uint256"
        }
      ],
      "name": "PropertyUpdated",
      "type": "event"
    },
    {
      "anonymous": false,
      "inputs": [
        {
          "indexed": true,
          "internalType": "bytes32",
          "name": "role",
          "type": "bytes32"
        },
        {
          "indexed": true,
          "internalType": "bytes32",
          "name": "previousAdminRole",
          "type": "bytes32"
        },
        {
          "indexed": true,
          "internalType": "bytes32",
          "name": "newAdminRole",
          "type": "bytes32"
        }
      ],
      "name": "RoleAdminChanged",
      "type": "event"
    },
    {
      "anonymous": false,
      "inputs": [
        {
          "indexed": true,
          "internalType": "bytes32",
          "name": "role",
          "type": "bytes32"
        },
        {
          "indexed": true,
          "internalType": "address",
          "name": "account",
          "type": "address"
        },
        {
          "indexed": true,
          "internalType": "address",
          "name": "sender",
          "type": "address"
        }
      ],
      "name": "RoleGranted",
      "type": "event"
    },
    {
      "anonymous": false,
      "inputs": [
        {
          "indexed": true,
          "internalType": "bytes32",
          "name": "role",
          "type": "bytes32"
        },
        {
          "indexed": true,
          "internalType": "address",
          "name": "account",
          "type": "address"
        },
        {
          "indexed": true,
          "internalType": "address",
          "name": "sender",
          "type": "address"
        }
      ],
      "name": "RoleRevoked",
      "type": "event"
    },
    {
      "anonymous": false,
      "inputs": [
        {
          "indexed": false,
          "internalType": "uint256",
          "name": "offerId",
          "type": "uint256"
        },
        {
          "indexed": false,
          "internalType": "uint256",
          "name": "timestamp",
          "type": "uint256"
        }
      ],
      "name": "SellerAcceptedOffer",
      "type": "event"
    },
    {
      "anonymous": false,
      "inputs": [
        {
          "indexed": false,
          "internalType": "uint256",
          "name": "offerId",
          "type": "uint256"
        },
        {
          "indexed": false,
          "internalType": "uint256",
          "name": "timestamp",
          "type": "uint256"
        }
      ],
      "name": "SellerRejectedOffer",
      "type": "event"
    },
    {
      "inputs": [],
      "name": "DEFAULT_ADMIN_ROLE",
      "outputs": [
        {
          "internalType": "bytes32",
          "name": "",
          "type": "bytes32"
        }
      ],
      "stateMutability": "view",
      "type": "function"
    },
    {
      "inputs": [],
      "name": "INSPECTOR_ROLE",
      "outputs": [
        {
          "internalType": "bytes32",
          "name": "",
          "type": "bytes32"
        }
      ],
      "stateMutability": "view",
      "type": "function"
    },
    {
      "inputs": [
        {
          "internalType": "uint256",
          "name": "",
          "type": "uint256"
        }
      ],
      "name": "activeProperties",
      "outputs": [
        {
          "internalType": "uint256",
          "name": "",
          "type": "uint256"
        }
      ],
      "stateMutability": "view",
      "type": "function"
    },
    {
      "inputs": [
        {
          "internalType": "uint256",
          "name": "_offerId",
          "type": "uint256"
        }
      ],
      "name": "cancelOffer",
      "outputs": [],
      "stateMutability": "nonpayable",
      "type": "function"
    },
    {
      "inputs": [
        {
          "internalType": "uint256",
          "name": "_propertyId",
          "type": "uint256"
        }
      ],
      "name": "cancelPropertyListing",
      "outputs": [],
      "stateMutability": "nonpayable",
      "type": "function"
    },
    {
      "inputs": [],
      "name": "getActiveProperties",
      "outputs": [
        {
          "internalType": "uint256[]",
          "name": "",
          "type": "uint256[]"
        }
      ],
      "stateMutability": "view",
      "type": "function"
    },
    {
      "inputs": [
        {
          "internalType": "uint256",
          "name": "_propertyId",
          "type": "uint256"
        }
      ],
      "name": "getBestOffer",
      "outputs": [
        {
          "internalType": "uint256",
          "name": "bestOfferId",
          "type": "uint256"
        }
      ],
      "stateMutability": "view",
      "type": "function"
    },
    {
      "inputs": [
        {
          "internalType": "uint256",
          "name": "_propertyId",
          "type": "uint256"
        }
      ],
      "name": "getOffersForProperty",
      "outputs": [
        {
          "internalType": "uint256[]",
          "name": "",
          "type": "uint256[]"
        }
      ],
      "stateMutability": "view",
      "type": "function"
    },
    {
      "inputs": [
        {
          "internalType": "bytes32",
          "name": "role",
          "type": "bytes32"
        }
      ],
      "name": "getRoleAdmin",
      "outputs": [
        {
          "internalType": "bytes32",
          "name": "",
          "type": "bytes32"
        }
      ],
      "stateMutability": "view",
      "type": "function"
    },
    {
      "inputs": [
        {
          "internalType": "address",
          "name": "_user",
          "type": "address"
        }
      ],
      "name": "getUserTransactions",
      "outputs": [
        {
          "internalType": "uint256[]",
          "name": "",
          "type": "uint256[]"
        }
      ],
      "stateMutability": "view",
      "type": "function"
    },
    {
      "inputs": [
        {
          "internalType": "address",
          "name": "_user",
          "type": "address"
        },
        {
          "internalType": "uint256",
          "name": "start",
          "type": "uint256"
        },
        {
          "internalType": "uint256",
          "name": "count",
          "type": "uint256"
        }
      ],
      "name": "getUserTransactionsPaginated",
      "outputs": [
        {
          "internalType": "uint256[]",
          "name": "",
          "type": "uint256[]"
        }
      ],
      "stateMutability": "view",
      "type": "function"
    },
    {
      "inputs": [
        {
          "internalType": "bytes32",
          "name": "role",
          "type": "bytes32"
        },
        {
          "internalType": "address",
          "name": "account",
          "type": "address"
        }
      ],
      "name": "grantRole",
      "outputs": [],
      "stateMutability": "nonpayable",
      "type": "function"
    },
    {
      "inputs": [
        {
          "internalType": "bytes32",
          "name": "role",
          "type": "bytes32"
        },
        {
          "internalType": "address",
          "name": "account",
          "type": "address"
        }
      ],
      "name": "hasRole",
      "outputs": [
        {
          "internalType": "bool",
          "name": "",
          "type": "bool"
        }
      ],
      "stateMutability": "view",
      "type": "function"
    },
    {
      "inputs": [
        {
          "internalType": "uint256",
          "name": "_offerId",
          "type": "uint256"
        },
        {
          "internalType": "address",
          "name": "seller",
          "type": "address"
        },
        {
          "internalType": "uint256",
          "name": "_amount",
          "type": "uint256"
        }
      ],
      "name": "inspectorApproveOffer",
      "outputs": [
        {
          "internalType": "bool",
          "name": "",
          "type": "bool"
        }
      ],
      "stateMutability": "payable",
      "type": "function"
    },
    {
      "inputs": [
        {
          "internalType": "string",
          "name": "_location",
          "type": "string"
        },
        {
          "internalType": "uint256",
          "name": "_area",
          "type": "uint256"
        },
        {
          "internalType": "uint256",
          "name": "_askingPrice",
          "type": "uint256"
        },
        {
          "internalType": "string",
          "name": "_documentHash",
          "type": "string"
        }
      ],
      "name": "listProperty",
      "outputs": [],
      "stateMutability": "nonpayable",
      "type": "function"
    },
    {
      "inputs": [],
      "name": "offerCount",
      "outputs": [
        {
          "internalType": "uint256",
          "name": "",
          "type": "uint256"
        }
      ],
      "stateMutability": "view",
      "type": "function"
    },
    {
      "inputs": [
        {
          "internalType": "uint256",
          "name": "",
          "type": "uint256"
        }
      ],
      "name": "offers",
      "outputs": [
        {
          "internalType": "uint256",
          "name": "id",
          "type": "uint256"
        },
        {
          "internalType": "uint256",
          "name": "propertyId",
          "type": "uint256"
        },
        {
          "internalType": "uint256",
          "name": "offerPrice",
          "type": "uint256"
        },
        {
          "internalType": "uint256",
          "name": "escrowAmount",
          "type": "uint256"
        },
        {
          "internalType": "address",
          "name": "buyer",
          "type": "address"
        },
        {
          "internalType": "enum LandRegistry.OfferStatus",
          "name": "status",
          "type": "uint8"
        }
      ],
      "stateMutability": "view",
      "type": "function"
    },
    {
      "inputs": [
        {
          "internalType": "uint256",
          "name": "",
          "type": "uint256"
        }
      ],
      "name": "properties",
      "outputs": [
        {
          "internalType": "uint256",
          "name": "id",
          "type": "uint256"
        },
        {
          "internalType": "address",
          "name": "seller",
          "type": "address"
        },
        {
          "internalType": "address",
          "name": "owner",
          "type": "address"
        },
        {
          "internalType": "bool",
          "name": "isListed",
          "type": "bool"
        },
        {
          "internalType": "uint256",
          "name": "area",
          "type": "uint256"
        },
        {
          "internalType": "uint256",
          "name": "askingPrice",
          "type": "uint256"
        },
        {
          "internalType": "string",
          "name": "location",
          "type": "string"
        },
        {
          "internalType": "string",
          "name": "documentHash",
          "type": "string"
        }
      ],
      "stateMutability": "view",
      "type": "function"
    },
    {
      "inputs": [],
      "name": "propertyCount",
      "outputs": [
        {
          "internalType": "uint256",
          "name": "",
          "type": "uint256"
        }
      ],
      "stateMutability": "view",
      "type": "function"
    },
    {
      "inputs": [
        {
          "internalType": "uint256",
          "name": "",
          "type": "uint256"
        },
        {
          "internalType": "uint256",
          "name": "",
          "type": "uint256"
        }
      ],
      "name": "propertyOffers",
      "outputs": [
        {
          "internalType": "uint256",
          "name": "",
          "type": "uint256"
        }
      ],
      "stateMutability": "view",
      "type": "function"
    },
    {
      "inputs": [
        {
          "internalType": "bytes32",
          "name": "role",
          "type": "bytes32"
        },
        {
          "internalType": "address",
          "name": "callerConfirmation",
          "type": "address"
        }
      ],
      "name": "renounceRole",
      "outputs": [],
      "stateMutability": "nonpayable",
      "type": "function"
    },
    {
      "inputs": [
        {
          "internalType": "bytes32",
          "name": "role",
          "type": "bytes32"
        },
        {
          "internalType": "address",
          "name": "account",
          "type": "address"
        }
      ],
      "name": "revokeRole",
      "outputs": [],
      "stateMutability": "nonpayable",
      "type": "function"
    },
    {
      "inputs": [
        {
          "internalType": "uint256",
          "name": "_offerId",
          "type": "uint256"
        }
      ],
      "name": "sellerAcceptOffer",
      "outputs": [],
      "stateMutability": "nonpayable",
      "type": "function"
    },
    {
      "inputs": [
        {
          "internalType": "uint256",
          "name": "_offerId",
          "type": "uint256"
        }
      ],
      "name": "sellerRejectOffer",
      "outputs": [],
      "stateMutability": "nonpayable",
      "type": "function"
    },
    {
      "inputs": [
        {
          "internalType": "uint256",
          "name": "_propertyId",
          "type": "uint256"
        },
        {
          "internalType": "uint256",
          "name": "_offerPrice",
          "type": "uint256"
        },
        {
          "internalType": "address",
          "name": "_buyer",
          "type": "address"
        }
      ],
      "name": "submitOffer",
      "outputs": [],
      "stateMutability": "payable",
      "type": "function"
    },
    {
      "inputs": [
        {
          "internalType": "bytes4",
          "name": "interfaceId",
          "type": "bytes4"
        }
      ],
      "name": "supportsInterface",
      "outputs": [
        {
          "internalType": "bool",
          "name": "",
          "type": "bool"
        }
      ],
      "stateMutability": "view",
      "type": "function"
    },
    {
      "inputs": [
        {
          "internalType": "address payable",
          "name": "buyer",
          "type": "address"
        },
        {
          "internalType": "address payable",
          "name": "seller",
          "type": "address"
        },
        {
          "internalType": "uint256",
          "name": "amount",
          "type": "uint256"
        }
      ],
      "name": "transferFunds",
      "outputs": [
        {
          "internalType": "bool",
          "name": "",
          "type": "bool"
        }
      ],
      "stateMutability": "nonpayable",
      "type": "function"
    },
    {
      "inputs": [
        {
          "internalType": "uint256",
          "name": "_propertyId",
          "type": "uint256"
        },
        {
          "internalType": "string",
          "name": "_location",
          "type": "string"
        },
        {
          "internalType": "uint256",
          "name": "_area",
          "type": "uint256"
        },
        {
          "internalType": "uint256",
          "name": "_askingPrice",
          "type": "uint256"
        },
        {
          "internalType": "string",
          "name": "_documentHash",
          "type": "string"
        }
      ],
      "name": "updateProperty",
      "outputs": [],
      "stateMutability": "nonpayable",
      "type": "function"
    },
    {
      "inputs": [
        {
          "internalType": "address",
          "name": "",
          "type": "address"
        },
        {
          "internalType": "uint256",
          "name": "",
          "type": "uint256"
        }
      ],
      "name": "userTransactions",
      "outputs": [
        {
          "internalType": "uint256",
          "name": "",
          "type": "uint256"
        }
      ],
      "stateMutability": "view",
      "type": "function"
    }
  ],
  "bytecode": "0x60806040523480156200001157600080fd5b50604051620046f6380380620046f6833981810160405281019062000037919062000266565b6200004c6000801b336200008760201b60201c565b506200007f7f273dcf2136c7d8ef632bb8ef13dbca69a8f36fa620c7468671b3153d46a211c0826200008760201b60201c565b505062000298565b60006200009b83836200018a60201b60201c565b6200017f57600160008085815260200190815260200160002060000160008473ffffffffffffffffffffffffffffffffffffffff1673ffffffffffffffffffffffffffffffffffffffff16815260200190815260200160002060006101000a81548160ff0219169083151502179055506200011b620001f460201b60201c565b73ffffffffffffffffffffffffffffffffffffffff168273ffffffffffffffffffffffffffffffffffffffff16847f2f8788117e7eff1d82e926ec794901d17c78024a50270940304540a733656f0d60405160405180910390a46001905062000184565b600090505b92915050565b600080600084815260200190815260200160002060000160008373ffffffffffffffffffffffffffffffffffffffff1673ffffffffffffffffffffffffffffffffffffffff16815260200190815260200160002060009054906101000a900460ff16905092915050565b600033905090565b600080fd5b600073ffffffffffffffffffffffffffffffffffffffff82169050919050565b60006200022e8262000201565b9050919050565b620002408162000221565b81146200024c57600080fd5b50565b600081519050620002608162000235565b92915050565b6000602082840312156200027f576200027e620001fc565b5b60006200028f848285016200024f565b91505092915050565b61444e80620002a86000396000f3fe6080604052600436106101c25760003560e01c80638a72ea6a116100f7578063c550931511610095578063ef706adf11610064578063ef706adf146106ad578063ef925399146106d6578063f609d45914610713578063f7b108081461073c576101c2565b8063c5509315146105f1578063d547741f1461062e578063e3a3c52214610657578063eb81e09814610682576101c2565b8063a8b268de116100d1578063a8b268de14610523578063b842ec4414610560578063bf6a0eac1461059d578063c361a335146105c6576101c2565b80638a72ea6a1461047957806391d14854146104bb578063a217fddf146104f8576101c2565b80632d97bd66116101645780633d8fefe31161013e5780633d8fefe3146103ba57806344320925146103e35780635d915260146103ff578063784c40a31461043c576101c2565b80632d97bd661461033f5780632f2ff15d1461036857806336568abe14610391576101c2565b80631115c24d116101a05780631115c24d146102715780631501bf031461029c578063248a9ca3146102d95780632807dd4a14610316576101c2565b8063012685f4146101c757806301ffc9a71461020457806305e95fd414610241575b600080fd5b3480156101d357600080fd5b506101ee60048036038101906101e99190612af7565b610780565b6040516101fb9190612c08565b60405180910390f35b34801561021057600080fd5b5061022b60048036038101906102269190612c82565b6108fe565b6040516102389190612cca565b60405180910390f35b61025b60048036038101906102569190612ce5565b610978565b6040516102689190612cca565b60405180910390f35b34801561027d57600080fd5b50610286610e43565b6040516102939190612d47565b60405180910390f35b3480156102a857600080fd5b506102c360048036038101906102be9190612da0565b610e49565b6040516102d09190612cca565b60405180910390f35b3480156102e557600080fd5b5061030060048036038101906102fb9190612e29565b610f9f565b60405161030d9190612e65565b60405180910390f35b34801561032257600080fd5b5061033d60048036038101906103389190612e80565b610fbe565b005b34801561034b57600080fd5b5061036660048036038101906103619190612ff3565b611132565b005b34801561037457600080fd5b5061038f600480360381019061038a9190613092565b6113b0565b005b34801561039d57600080fd5b506103b860048036038101906103b39190613092565b6113d2565b005b3480156103c657600080fd5b506103e160048036038101906103dc9190612e80565b61144d565b005b6103fd60048036038101906103f891906130d2565b6115f4565b005b34801561040b57600080fd5b5061042660048036038101906104219190612e80565b611956565b6040516104339190612d47565b60405180910390f35b34801561044857600080fd5b50610463600480360381019061045e9190612e80565b611a97565b6040516104709190612c08565b60405180910390f35b34801561048557600080fd5b506104a0600480360381019061049b9190612e80565b611b02565b6040516104b2969594939291906131ab565b60405180910390f35b3480156104c757600080fd5b506104e260048036038101906104dd9190613092565b611b6b565b6040516104ef9190612cca565b60405180910390f35b34801561050457600080fd5b5061050d611bd5565b60405161051a9190612e65565b60405180910390f35b34801561052f57600080fd5b5061054a60048036038101906105459190612e80565b611bdc565b6040516105579190612d47565b60405180910390f35b34801561056c57600080fd5b506105876004803603810190610582919061320c565b611c00565b6040516105949190612d47565b60405180910390f35b3480156105a957600080fd5b506105c460048036038101906105bf919061324c565b611c31565b005b3480156105d257600080fd5b506105db611db9565b6040516105e89190612d47565b60405180910390f35b3480156105fd57600080fd5b50610618600480360381019061061391906132ff565b611dbf565b6040516106259190612d47565b60405180910390f35b34801561063a57600080fd5b5061065560048036038101906106509190613092565b611df0565b005b34801561066357600080fd5b5061066c611e12565b6040516106799190612e65565b60405180910390f35b34801561068e57600080fd5b50610697611e36565b6040516106a49190612c08565b60405180910390f35b3480156106b957600080fd5b506106d460048036038101906106cf9190612e80565b611e8e565b005b3480156106e257600080fd5b506106fd60048036038101906106f8919061333f565b61218b565b60405161070a9190612c08565b60405180910390f35b34801561071f57600080fd5b5061073a60048036038101906107359190612e80565b612222565b005b34801561074857600080fd5b50610763600480360381019061075e9190612e80565b612524565b6040516107779897969594939291906133eb565b60405180910390f35b60606000600560008673ffffffffffffffffffffffffffffffffffffffff1673ffffffffffffffffffffffffffffffffffffffff16815260200190815260200160002090508080549050841061080b576040517f08c379a0000000000000000000000000000000000000000000000000000000008152600401610802906134c3565b60405180910390fd5b600083856108199190613512565b9050818054905081111561082f57818054905090505b6000858261083d9190613546565b67ffffffffffffffff81111561085657610855612ec8565b5b6040519080825280602002602001820160405280156108845781602001602082028036833780820191505090505b50905060008690505b828110156108f0578381815481106108a8576108a761357a565b5b90600052602060002001548288836108c09190613546565b815181106108d1576108d061357a565b5b60200260200101818152505080806108e8906135a9565b91505061088d565b508093505050509392505050565b60007f7965db0b000000000000000000000000000000000000000000000000000000007bffffffffffffffffffffffffffffffffffffffffffffffffffffffff1916827bffffffffffffffffffffffffffffffffffffffffffffffffffffffff191614806109715750610970826126c9565b5b9050919050565b60007f273dcf2136c7d8ef632bb8ef13dbca69a8f36fa620c7468671b3153d46a211c06109a481612733565b600060046000878152602001908152602001600020905060028160040160146101000a81548160ff021916908360048111156109e3576109e2613134565b5b02179055507f5975e7f3a49c16ee4cc3dee32f1ec1e8a8005dc9570499e4c2efeb20552ecb758642604051610a199291906135f1565b60405180910390a160008411610a64576040517f08c379a0000000000000000000000000000000000000000000000000000000008152600401610a5b90613666565b60405180910390fd5b60003411610aa7576040517f08c379a0000000000000000000000000000000000000000000000000000000008152600401610a9e906136d2565b60405180910390fd5b833414610ae9576040517f08c379a0000000000000000000000000000000000000000000000000000000008152600401610ae090613764565b60405180910390fd5b8060030154841115610b30576040517f08c379a0000000000000000000000000000000000000000000000000000000008152600401610b27906137f6565b60405180910390fd5b833414610b72576040517f08c379a0000000000000000000000000000000000000000000000000000000008152600401610b6990613764565b60405180910390fd5b83816003016000828254610b869190613546565b9250508190555060008573ffffffffffffffffffffffffffffffffffffffff1634604051610bb390613847565b60006040518083038185875af1925050503d8060008114610bf0576040519150601f19603f3d011682016040523d82523d6000602084013e610bf5565b606091505b5050905080610c39576040517f08c379a0000000000000000000000000000000000000000000000000000000008152600401610c30906138a8565b60405180910390fd5b8573ffffffffffffffffffffffffffffffffffffffff167f857ee444bd65e10f00852a82dd145e21cb947a03fa0e6aec962e49f1c63867f1888742604051610c83939291906138c8565b60405180910390a26000826003015403610e35576000600360008460010154815260200190815260200160002090508260040160009054906101000a900473ffffffffffffffffffffffffffffffffffffffff168160020160006101000a81548173ffffffffffffffffffffffffffffffffffffffff021916908373ffffffffffffffffffffffffffffffffffffffff16021790555060008160020160146101000a81548160ff021916908315150217905550610d438160000154612747565b600560008460040160009054906101000a900473ffffffffffffffffffffffffffffffffffffffff1673ffffffffffffffffffffffffffffffffffffffff1673ffffffffffffffffffffffffffffffffffffffff168152602001908152602001600020889080600181540180825580915050600190039060005260206000200160009091909190915055600560008873ffffffffffffffffffffffffffffffffffffffff1673ffffffffffffffffffffffffffffffffffffffff168152602001908152602001600020889080600181540180825580915050600190039060005260206000200160009091909190915055505b600193505050509392505050565b60025481565b6000808211610e8d576040517f08c379a0000000000000000000000000000000000000000000000000000000008152600401610e8490613971565b60405180910390fd5b818473ffffffffffffffffffffffffffffffffffffffff16311015610ee7576040517f08c379a0000000000000000000000000000000000000000000000000000000008152600401610ede906139dd565b60405180910390fd5b60008373ffffffffffffffffffffffffffffffffffffffff1683604051610f0d90613847565b60006040518083038185875af1925050503d8060008114610f4a576040519150601f19603f3d011682016040523d82523d6000602084013e610f4f565b606091505b5050905080610f93576040517f08c379a0000000000000000000000000000000000000000000000000000000008152600401610f8a90613a49565b60405180910390fd5b60019150509392505050565b6000806000838152602001908152602001600020600101549050919050565b60006003600083815260200190815260200160002090508060010160009054906101000a900473ffffffffffffffffffffffffffffffffffffffff1673ffffffffffffffffffffffffffffffffffffffff163373ffffffffffffffffffffffffffffffffffffffff1614611067576040517f08c379a000000000000000000000000000000000000000000000000000000000815260040161105e90613ab5565b60405180910390fd5b8060020160149054906101000a900460ff166110b8576040517f08c379a00000000000000000000000000000000000000000000000000000000081526004016110af90613b21565b60405180910390fd5b60008160020160146101000a81548160ff0219169083151502179055506110de82612747565b3373ffffffffffffffffffffffffffffffffffffffff167f018818533256156e181df92fa8f0b7f462d12269231bbc8e929431496246857483426040516111269291906135f1565b60405180910390a25050565b60016000815480929190611145906135a9565b919050555060405180610100016040528060015481526020013373ffffffffffffffffffffffffffffffffffffffff1681526020013373ffffffffffffffffffffffffffffffffffffffff168152602001600115158152602001848152602001838152602001858152602001828152506003600060015481526020019081526020016000206000820151816000015560208201518160010160006101000a81548173ffffffffffffffffffffffffffffffffffffffff021916908373ffffffffffffffffffffffffffffffffffffffff16021790555060408201518160020160006101000a81548173ffffffffffffffffffffffffffffffffffffffff021916908373ffffffffffffffffffffffffffffffffffffffff16021790555060608201518160020160146101000a81548160ff0219169083151502179055506080820151816003015560a0820151816004015560c08201518160050190816112ab9190613d4d565b5060e08201518160060190816112c19190613d4d565b50905050600760015490806001815401808255809150506001900390600052602060002001600090919091909150553373ffffffffffffffffffffffffffffffffffffffff167f23fb658c1698b92f5fe511a079c17ecf7965cbc3f1b873328c67e2c3c0820f1f6001544260405161133a9291906135f1565b60405180910390a2600560003373ffffffffffffffffffffffffffffffffffffffff1673ffffffffffffffffffffffffffffffffffffffff168152602001908152602001600020600154908060018154018082558091505060019003906000526020600020016000909190919091505550505050565b6113b982610f9f565b6113c281612733565b6113cc8383612813565b50505050565b6113da612904565b73ffffffffffffffffffffffffffffffffffffffff168173ffffffffffffffffffffffffffffffffffffffff161461143e576040517f6697b23200000000000000000000000000000000000000000000000000000000815260040160405180910390fd5b611448828261290c565b505050565b60006004600083815260200190815260200160002090506000600360008360010154815260200190815260200160002090508060010160009054906101000a900473ffffffffffffffffffffffffffffffffffffffff1673ffffffffffffffffffffffffffffffffffffffff163373ffffffffffffffffffffffffffffffffffffffff1614611511576040517f08c379a000000000000000000000000000000000000000000000000000000000815260040161150890613e6b565b60405180910390fd5b6000600481111561152557611524613134565b5b8260040160149054906101000a900460ff16600481111561154957611548613134565b5b14611589576040517f08c379a000000000000000000000000000000000000000000000000000000000815260040161158090613ed7565b60405180910390fd5b60018260040160146101000a81548160ff021916908360048111156115b1576115b0613134565b5b02179055507f4812f1579f44d5ecef0b29a61836e238533b635c2e9a72d71814c9e65609808783426040516115e79291906135f1565b60405180910390a1505050565b6003600084815260200190815260200160002060020160149054906101000a900460ff16611657576040517f08c379a000000000000000000000000000000000000000000000000000000000815260040161164e90613f43565b60405180910390fd5b6000821161169a576040517f08c379a000000000000000000000000000000000000000000000000000000000815260040161169190613faf565b60405180910390fd5b8134146116dc576040517f08c379a00000000000000000000000000000000000000000000000000000000081526004016116d390614041565b60405180910390fd5b600260008154809291906116ef906135a9565b91905055506040518060c0016040528060025481526020018481526020018381526020013481526020018273ffffffffffffffffffffffffffffffffffffffff1681526020016000600481111561174957611748613134565b5b8152506004600060025481526020019081526020016000206000820151816000015560208201518160010155604082015181600201556060820151816003015560808201518160040160006101000a81548173ffffffffffffffffffffffffffffffffffffffff021916908373ffffffffffffffffffffffffffffffffffffffff16021790555060a08201518160040160146101000a81548160ff021916908360048111156117fb576117fa613134565b5b02179055509050506006600084815260200190815260200160002060025490806001815401808255809150506001900390600052602060002001600090919091909150558073ffffffffffffffffffffffffffffffffffffffff167fc03cc5c7bb1261d289b21bedf3ceff0be091091ab400d42cb65c27cfb857a13760025485854260405161188d9493929190614061565b60405180910390a28073ffffffffffffffffffffffffffffffffffffffff167fbc6351b0e2a6a3f646e25885e97f2d7aef98ed917cad825bbcbc26d30bd1f0fb60025434426040516118e1939291906138c8565b60405180910390a2600560008273ffffffffffffffffffffffffffffffffffffffff1673ffffffffffffffffffffffffffffffffffffffff1681526020019081526020016000206002549080600181540180825580915050600190039060005260206000200160009091909190915055505050565b600080600660008481526020019081526020016000208054806020026020016040519081016040528092919081815260200182805480156119b657602002820191906000526020600020905b8154815260200190600101908083116119a2575b50505050509050600080925060005b8251811015611a8f5760008382815181106119e3576119e261357a565b5b60200260200101519050826004600083815260200190815260200160002060020154118015611a59575060006004811115611a2157611a20613134565b5b6004600083815260200190815260200160002060040160149054906101000a900460ff166004811115611a5757611a56613134565b5b145b15611a7b57600460008281526020019081526020016000206002015492508094505b508080611a87906135a9565b9150506119c5565b505050919050565b606060066000838152602001908152602001600020805480602002602001604051908101604052809291908181526020018280548015611af657602002820191906000526020600020905b815481526020019060010190808311611ae2575b50505050509050919050565b60046020528060005260406000206000915090508060000154908060010154908060020154908060030154908060040160009054906101000a900473ffffffffffffffffffffffffffffffffffffffff16908060040160149054906101000a900460ff16905086565b600080600084815260200190815260200160002060000160008373ffffffffffffffffffffffffffffffffffffffff1673ffffffffffffffffffffffffffffffffffffffff16815260200190815260200160002060009054906101000a900460ff16905092915050565b6000801b81565b60078181548110611bec57600080fd5b906000526020600020016000915090505481565b60056020528160005260406000208181548110611c1c57600080fd5b90600052602060002001600091509150505481565b60006003600087815260200190815260200160002090508060010160009054906101000a900473ffffffffffffffffffffffffffffffffffffffff1673ffffffffffffffffffffffffffffffffffffffff163373ffffffffffffffffffffffffffffffffffffffff1614611cda576040517f08c379a0000000000000000000000000000000000000000000000000000000008152600401611cd1906140f2565b60405180910390fd5b8060020160149054906101000a900460ff16611d2b576040517f08c379a0000000000000000000000000000000000000000000000000000000008152600401611d229061415e565b60405180910390fd5b84816005019081611d3c9190613d4d565b5083816003018190555082816004018190555081816006019081611d609190613d4d565b503373ffffffffffffffffffffffffffffffffffffffff167f01b00ffa78260d278718a5716abceba124ddf46f5b64eb3f738e677670ae4af68742604051611da99291906135f1565b60405180910390a2505050505050565b60015481565b60066020528160005260406000208181548110611ddb57600080fd5b90600052602060002001600091509150505481565b611df982610f9f565b611e0281612733565b611e0c838361290c565b50505050565b7f273dcf2136c7d8ef632bb8ef13dbca69a8f36fa620c7468671b3153d46a211c081565b60606007805480602002602001604051908101604052809291908181526020018280548015611e8457602002820191906000526020600020905b815481526020019060010190808311611e70575b5050505050905090565b60006004600083815260200190815260200160002090508060040160009054906101000a900473ffffffffffffffffffffffffffffffffffffffff1673ffffffffffffffffffffffffffffffffffffffff163373ffffffffffffffffffffffffffffffffffffffff1614611f37576040517f08c379a0000000000000000000000000000000000000000000000000000000008152600401611f2e906141ca565b60405180910390fd5b60006004811115611f4b57611f4a613134565b5b8160040160149054906101000a900460ff166004811115611f6f57611f6e613134565b5b14611faf576040517f08c379a0000000000000000000000000000000000000000000000000000000008152600401611fa69061425c565b60405180910390fd5b60048160040160146101000a81548160ff02191690836004811115611fd757611fd6613134565b5b02179055506000816003015490506000826003018190555060008260040160009054906101000a900473ffffffffffffffffffffffffffffffffffffffff1673ffffffffffffffffffffffffffffffffffffffff168260405161203990613847565b60006040518083038185875af1925050503d8060008114612076576040519150601f19603f3d011682016040523d82523d6000602084013e61207b565b606091505b50509050806120bf576040517f08c379a00000000000000000000000000000000000000000000000000000000081526004016120b6906142c8565b60405180910390fd5b3373ffffffffffffffffffffffffffffffffffffffff167fe2dc0bfd2fc658db980184c3f7c091c2f886874e896043b562d5099c8d95b1dd85426040516121079291906135f1565b60405180910390a28260040160009054906101000a900473ffffffffffffffffffffffffffffffffffffffff1673ffffffffffffffffffffffffffffffffffffffff167fcca40337e9b245dc8a1a334e63478fc0d233f6de38e9dd99bae080b1b6951e5a85844260405161217d939291906138c8565b60405180910390a250505050565b6060600560008373ffffffffffffffffffffffffffffffffffffffff1673ffffffffffffffffffffffffffffffffffffffff16815260200190815260200160002080548060200260200160405190810160405280929190818152602001828054801561221657602002820191906000526020600020905b815481526020019060010190808311612202575b50505050509050919050565b60006004600083815260200190815260200160002090506000600360008360010154815260200190815260200160002090508060010160009054906101000a900473ffffffffffffffffffffffffffffffffffffffff1673ffffffffffffffffffffffffffffffffffffffff163373ffffffffffffffffffffffffffffffffffffffff16146122e6576040517f08c379a00000000000000000000000000000000000000000000000000000000081526004016122dd90614334565b60405180910390fd5b600060048111156122fa576122f9613134565b5b8260040160149054906101000a900460ff16600481111561231e5761231d613134565b5b1461235e576040517f08c379a0000000000000000000000000000000000000000000000000000000008152600401612355906143a0565b60405180910390fd5b60038260040160146101000a81548160ff0219169083600481111561238657612385613134565b5b02179055506000826003015490506000836003018190555060008360040160009054906101000a900473ffffffffffffffffffffffffffffffffffffffff1673ffffffffffffffffffffffffffffffffffffffff16826040516123e890613847565b60006040518083038185875af1925050503d8060008114612425576040519150601f19603f3d011682016040523d82523d6000602084013e61242a565b606091505b505090508061246e576040517f08c379a0000000000000000000000000000000000000000000000000000000008152600401612465906142c8565b60405180910390fd5b7fdb7a7d553ae4ce87570a3234260b5d2a2b5ccd2732d113e3c3c1e7bcbd34de6b854260405161249f9291906135f1565b60405180910390a18360040160009054906101000a900473ffffffffffffffffffffffffffffffffffffffff1673ffffffffffffffffffffffffffffffffffffffff167fcca40337e9b245dc8a1a334e63478fc0d233f6de38e9dd99bae080b1b6951e5a868442604051612515939291906138c8565b60405180910390a25050505050565b60036020528060005260406000206000915090508060000154908060010160009054906101000a900473ffffffffffffffffffffffffffffffffffffffff16908060020160009054906101000a900473ffffffffffffffffffffffffffffffffffffffff16908060020160149054906101000a900460ff16908060030154908060040154908060050180546125b890613b70565b80601f01602080910402602001604051908101604052809291908181526020018280546125e490613b70565b80156126315780601f1061260657610100808354040283529160200191612631565b820191906000526020600020905b81548152906001019060200180831161261457829003601f168201915b50505050509080600601805461264690613b70565b80601f016020809104026020016040519081016040528092919081815260200182805461267290613b70565b80156126bf5780601f10612694576101008083540402835291602001916126bf565b820191906000526020600020905b8154815290600101906020018083116126a257829003601f168201915b5050505050905088565b60007f01ffc9a7000000000000000000000000000000000000000000000000000000007bffffffffffffffffffffffffffffffffffffffffffffffffffffffff1916827bffffffffffffffffffffffffffffffffffffffffffffffffffffffff1916149050919050565b6127448161273f612904565b6129fe565b50565b6000600780549050905060005b8181101561280e5782600782815481106127715761277061357a565b5b9060005260206000200154036127fb5760076001836127909190613546565b815481106127a1576127a061357a565b5b9060005260206000200154600782815481106127c0576127bf61357a565b5b906000526020600020018190555060078054806127e0576127df6143c0565b5b6001900381819060005260206000200160009055905561280e565b8080612806906135a9565b915050612754565b505050565b600061281f8383611b6b565b6128f957600160008085815260200190815260200160002060000160008473ffffffffffffffffffffffffffffffffffffffff1673ffffffffffffffffffffffffffffffffffffffff16815260200190815260200160002060006101000a81548160ff021916908315150217905550612896612904565b73ffffffffffffffffffffffffffffffffffffffff168273ffffffffffffffffffffffffffffffffffffffff16847f2f8788117e7eff1d82e926ec794901d17c78024a50270940304540a733656f0d60405160405180910390a4600190506128fe565b600090505b92915050565b600033905090565b60006129188383611b6b565b156129f357600080600085815260200190815260200160002060000160008473ffffffffffffffffffffffffffffffffffffffff1673ffffffffffffffffffffffffffffffffffffffff16815260200190815260200160002060006101000a81548160ff021916908315150217905550612990612904565b73ffffffffffffffffffffffffffffffffffffffff168273ffffffffffffffffffffffffffffffffffffffff16847ff6391f5c32d9c69d2a47ea670b442974b53935d1edc7fd64eb21e047a839171b60405160405180910390a4600190506129f8565b600090505b92915050565b612a088282611b6b565b612a4b5780826040517fe2517d3f000000000000000000000000000000000000000000000000000000008152600401612a429291906143ef565b60405180910390fd5b5050565b6000604051905090565b600080fd5b600080fd5b600073ffffffffffffffffffffffffffffffffffffffff82169050919050565b6000612a8e82612a63565b9050919050565b612a9e81612a83565b8114612aa957600080fd5b50565b600081359050612abb81612a95565b92915050565b6000819050919050565b612ad481612ac1565b8114612adf57600080fd5b50565b600081359050612af181612acb565b92915050565b600080600060608486031215612b1057612b0f612a59565b5b6000612b1e86828701612aac565b9350506020612b2f86828701612ae2565b9250506040612b4086828701612ae2565b9150509250925092565b600081519050919050565b600082825260208201905092915050565b6000819050602082019050919050565b612b7f81612ac1565b82525050565b6000612b918383612b76565b60208301905092915050565b6000602082019050919050565b6000612bb582612b4a565b612bbf8185612b55565b9350612bca83612b66565b8060005b83811015612bfb578151612be28882612b85565b9750612bed83612b9d565b925050600181019050612bce565b5085935050505092915050565b60006020820190508181036000830152612c228184612baa565b905092915050565b60007fffffffff0000000000000000000000000000000000000000000000000000000082169050919050565b612c5f81612c2a565b8114612c6a57600080fd5b50565b600081359050612c7c81612c56565b92915050565b600060208284031215612c9857612c97612a59565b5b6000612ca684828501612c6d565b91505092915050565b60008115159050919050565b612cc481612caf565b82525050565b6000602082019050612cdf6000830184612cbb565b92915050565b600080600060608486031215612cfe57612cfd612a59565b5b6000612d0c86828701612ae2565b9350506020612d1d86828701612aac565b9250506040612d2e86828701612ae2565b9150509250925092565b612d4181612ac1565b82525050565b6000602082019050612d5c6000830184612d38565b92915050565b6000612d6d82612a63565b9050919050565b612d7d81612d62565b8114612d8857600080fd5b50565b600081359050612d9a81612d74565b92915050565b600080600060608486031215612db957612db8612a59565b5b6000612dc786828701612d8b565b9350506020612dd886828701612d8b565b9250506040612de986828701612ae2565b9150509250925092565b6000819050919050565b612e0681612df3565b8114612e1157600080fd5b50565b600081359050612e2381612dfd565b92915050565b600060208284031215612e3f57612e3e612a59565b5b6000612e4d84828501612e14565b91505092915050565b612e5f81612df3565b82525050565b6000602082019050612e7a6000830184612e56565b92915050565b600060208284031215612e9657612e95612a59565b5b6000612ea484828501612ae2565b91505092915050565b600080fd5b600080fd5b6000601f19601f8301169050919050565b7f4e487b7100000000000000000000000000000000000000000000000000000000600052604160045260246000fd5b612f0082612eb7565b810181811067ffffffffffffffff82111715612f1f57612f1e612ec8565b5b80604052505050565b6000612f32612a4f565b9050612f3e8282612ef7565b919050565b600067ffffffffffffffff821115612f5e57612f5d612ec8565b5b612f6782612eb7565b9050602081019050919050565b82818337600083830152505050565b6000612f96612f9184612f43565b612f28565b905082815260208101848484011115612fb257612fb1612eb2565b5b612fbd848285612f74565b509392505050565b600082601f830112612fda57612fd9612ead565b5b8135612fea848260208601612f83565b91505092915050565b6000806000806080858703121561300d5761300c612a59565b5b600085013567ffffffffffffffff81111561302b5761302a612a5e565b5b61303787828801612fc5565b945050602061304887828801612ae2565b935050604061305987828801612ae2565b925050606085013567ffffffffffffffff81111561307a57613079612a5e565b5b61308687828801612fc5565b91505092959194509250565b600080604083850312156130a9576130a8612a59565b5b60006130b785828601612e14565b92505060206130c885828601612aac565b9150509250929050565b6000806000606084860312156130eb576130ea612a59565b5b60006130f986828701612ae2565b935050602061310a86828701612ae2565b925050604061311b86828701612aac565b9150509250925092565b61312e81612a83565b82525050565b7f4e487b7100000000000000000000000000000000000000000000000000000000600052602160045260246000fd5b6005811061317457613173613134565b5b50565b600081905061318582613163565b919050565b600061319582613177565b9050919050565b6131a58161318a565b82525050565b600060c0820190506131c06000830189612d38565b6131cd6020830188612d38565b6131da6040830187612d38565b6131e76060830186612d38565b6131f46080830185613125565b61320160a083018461319c565b979650505050505050565b6000806040838503121561322357613222612a59565b5b600061323185828601612aac565b925050602061324285828601612ae2565b9150509250929050565b600080600080600060a0868803121561326857613267612a59565b5b600061327688828901612ae2565b955050602086013567ffffffffffffffff81111561329757613296612a5e565b5b6132a388828901612fc5565b94505060406132b488828901612ae2565b93505060606132c588828901612ae2565b925050608086013567ffffffffffffffff8111156132e6576132e5612a5e565b5b6132f288828901612fc5565b9150509295509295909350565b6000806040838503121561331657613315612a59565b5b600061332485828601612ae2565b925050602061333585828601612ae2565b9150509250929050565b60006020828403121561335557613354612a59565b5b600061336384828501612aac565b91505092915050565b600081519050919050565b600082825260208201905092915050565b60005b838110156133a657808201518184015260208101905061338b565b60008484015250505050565b60006133bd8261336c565b6133c78185613377565b93506133d7818560208601613388565b6133e081612eb7565b840191505092915050565b600061010082019050613401600083018b612d38565b61340e602083018a613125565b61341b6040830189613125565b6134286060830188612cbb565b6134356080830187612d38565b61344260a0830186612d38565b81810360c083015261345481856133b2565b905081810360e083015261346881846133b2565b90509998505050505050505050565b7f537461727420696e646578206f7574206f6620626f756e647300000000000000600082015250565b60006134ad601983613377565b91506134b882613477565b602082019050919050565b600060208201905081810360008301526134dc816134a0565b9050919050565b7f4e487b7100000000000000000000000000000000000000000000000000000000600052601160045260246000fd5b600061351d82612ac1565b915061352883612ac1565b92508282019050808211156135405761353f6134e3565b5b92915050565b600061355182612ac1565b915061355c83612ac1565b9250828203905081811115613574576135736134e3565b5b92915050565b7f4e487b7100000000000000000000000000000000000000000000000000000000600052603260045260246000fd5b60006135b482612ac1565b91507fffffffffffffffffffffffffffffffffffffffffffffffffffffffffffffffff82036135e6576135e56134e3565b5b600182019050919050565b60006040820190506136066000830185612d38565b6136136020830184612d38565b9392505050565b7f5472616e7366657220616d6f756e74206d757374206265203e20300000000000600082015250565b6000613650601b83613377565b915061365b8261361a565b602082019050919050565b6000602082019050818103600083015261367f81613643565b9050919050565b7f6d73672e76616c7565206d7573742062652067726561746572207468616e2030600082015250565b60006136bc602083613377565b91506136c782613686565b602082019050919050565b600060208201905081810360008301526136eb816136af565b9050919050565b7f41747461636865642076616c7565206d75737420657175616c2074686520747260008201527f616e7366657220616d6f756e7400000000000000000000000000000000000000602082015250565b600061374e602d83613377565b9150613759826136f2565b604082019050919050565b6000602082019050818103600083015261377d81613741565b9050919050565b7f5472616e7366657220616d6f756e74206578636565647320657363726f77206660008201527f756e647300000000000000000000000000000000000000000000000000000000602082015250565b60006137e0602483613377565b91506137eb82613784565b604082019050919050565b6000602082019050818103600083015261380f816137d3565b9050919050565b600081905092915050565b50565b6000613831600083613816565b915061383c82613821565b600082019050919050565b600061385282613824565b9150819050919050565b7f5472616e7366657220746f2073656c6c6572206661696c656400000000000000600082015250565b6000613892601983613377565b915061389d8261385c565b602082019050919050565b600060208201905081810360008301526138c181613885565b9050919050565b60006060820190506138dd6000830186612d38565b6138ea6020830185612d38565b6138f76040830184612d38565b949350505050565b7f5472616e7366657220616d6f756e74206d75737420626520677265617465722060008201527f7468616e207a65726f0000000000000000000000000000000000000000000000602082015250565b600061395b602983613377565b9150613966826138ff565b604082019050919050565b6000602082019050818103600083015261398a8161394e565b9050919050565b7f42757965722068617320696e73756666696369656e742062616c616e63650000600082015250565b60006139c7601e83613377565b91506139d282613991565b602082019050919050565b600060208201905081810360008301526139f6816139ba565b9050919050565b7f5472616e73666572206661696c65640000000000000000000000000000000000600082015250565b6000613a33600f83613377565b9150613a3e826139fd565b602082019050919050565b60006020820190508181036000830152613a6281613a26565b9050919050565b7f4f6e6c792073656c6c65722063616e2063616e63656c206c697374696e670000600082015250565b6000613a9f601e83613377565b9150613aaa82613a69565b602082019050919050565b60006020820190508181036000830152613ace81613a92565b9050919050565b7f50726f706572747920616c726561647920696e61637469766500000000000000600082015250565b6000613b0b601983613377565b9150613b1682613ad5565b602082019050919050565b60006020820190508181036000830152613b3a81613afe565b9050919050565b7f4e487b7100000000000000000000000000000000000000000000000000000000600052602260045260246000fd5b60006002820490506001821680613b8857607f821691505b602082108103613b9b57613b9a613b41565b5b50919050565b60008190508160005260206000209050919050565b60006020601f8301049050919050565b600082821b905092915050565b600060088302613c037fffffffffffffffffffffffffffffffffffffffffffffffffffffffffffffffff82613bc6565b613c0d8683613bc6565b95508019841693508086168417925050509392505050565b6000819050919050565b6000613c4a613c45613c4084612ac1565b613c25565b612ac1565b9050919050565b6000819050919050565b613c6483613c2f565b613c78613c7082613c51565b848454613bd3565b825550505050565b600090565b613c8d613c80565b613c98818484613c5b565b505050565b5b81811015613cbc57613cb1600082613c85565b600181019050613c9e565b5050565b601f821115613d0157613cd281613ba1565b613cdb84613bb6565b81016020851015613cea578190505b613cfe613cf685613bb6565b830182613c9d565b50505b505050565b600082821c905092915050565b6000613d2460001984600802613d06565b1980831691505092915050565b6000613d3d8383613d13565b9150826002028217905092915050565b613d568261336c565b67ffffffffffffffff811115613d6f57613d6e612ec8565b5b613d798254613b70565b613d84828285613cc0565b600060209050601f831160018114613db75760008415613da5578287015190505b613daf8582613d31565b865550613e17565b601f198416613dc586613ba1565b60005b82811015613ded57848901518255600182019150602085019450602081019050613dc8565b86831015613e0a5784890151613e06601f891682613d13565b8355505b6001600288020188555050505b505050505050565b7f4f6e6c792073656c6c65722063616e20616363657074206f6666657200000000600082015250565b6000613e55601c83613377565b9150613e6082613e1f565b602082019050919050565b60006020820190508181036000830152613e8481613e48565b9050919050565b7f4f66666572206d7573742062652066756e646564206279206275796572000000600082015250565b6000613ec1601d83613377565b9150613ecc82613e8b565b602082019050919050565b60006020820190508181036000830152613ef081613eb4565b9050919050565b7f50726f7065727479206e6f74206c697374656400000000000000000000000000600082015250565b6000613f2d601383613377565b9150613f3882613ef7565b602082019050919050565b60006020820190508181036000830152613f5c81613f20565b9050919050565b7f4f66666572207072696365206d757374206265203e2030000000000000000000600082015250565b6000613f99601783613377565b9150613fa482613f63565b602082019050919050565b60006020820190508181036000830152613fc881613f8c565b9050919050565b7f53656e742076616c7565206d75737420657175616c206f66666572207072696360008201527f6500000000000000000000000000000000000000000000000000000000000000602082015250565b600061402b602183613377565b915061403682613fcf565b604082019050919050565b6000602082019050818103600083015261405a8161401e565b9050919050565b60006080820190506140766000830187612d38565b6140836020830186612d38565b6140906040830185612d38565b61409d6060830184612d38565b95945050505050565b7f4f6e6c792073656c6c65722063616e2075706461746500000000000000000000600082015250565b60006140dc601683613377565b91506140e7826140a6565b602082019050919050565b6000602082019050818103600083015261410b816140cf565b9050919050565b7f50726f7065727479206e6f742061637469766500000000000000000000000000600082015250565b6000614148601383613377565b915061415382614112565b602082019050919050565b600060208201905081810360008301526141778161413b565b9050919050565b7f4f6e6c792062757965722063616e2063616e63656c206f666665720000000000600082015250565b60006141b4601b83613377565b91506141bf8261417e565b602082019050919050565b600060208201905081810360008301526141e3816141a7565b9050919050565b7f4f666665722063616e6e6f742062652063616e63656c6c65642061742074686960008201527f7320737461676500000000000000000000000000000000000000000000000000602082015250565b6000614246602783613377565b9150614251826141ea565b604082019050919050565b6000602082019050818103600083015261427581614239565b9050919050565b7f526566756e64206661696c656400000000000000000000000000000000000000600082015250565b60006142b2600d83613377565b91506142bd8261427c565b602082019050919050565b600060208201905081810360008301526142e1816142a5565b9050919050565b7f4f6e6c792073656c6c65722063616e2072656a656374206f6666657200000000600082015250565b600061431e601c83613377565b9150614329826142e8565b602082019050919050565b6000602082019050818103600083015261434d81614311565b9050919050565b7f4f66666572206e6f7420696e20726566756e6461626c65207374617465000000600082015250565b600061438a601d83613377565b915061439582614354565b602082019050919050565b600060208201905081810360008301526143b98161437d565b9050919050565b7f4e487b7100000000000000000000000000000000000000000000000000000000600052603160045260246000fd5b60006040820190506144046000830185613125565b6144116020830184612e56565b939250505056fea2646970667358221220a1815ed41826467e6bea83cea598fcb0714c7e5c3199415dc5cd6e7467b6786c64736f6c63430008140033",
  "linkReferences": {},
  "deployedLinkReferences": {}
}